:020000040800F2
:1000000000000220391A0008891A0008891A00081D
:10001000891A0008891A0008891A000800000000DF
:10002000000000000000000000000000891A000825
:10003000891A000800000000891A0008C519000884
:10004000891A0008891A0008891A0008891A000804
:10005000891A0008891A0008891A0008891A0008F4
:10006000891A0008891A0008891A0008891A0008E4
:10007000891A0008891A0008891A0008891A0008D4
:10008000891A0008891A0008D5190008891A000879
:10009000891A0008891A0008891A0008891A0008B4
:1000A000891A0008891A0008891A0008891A0008A4
:1000B000891A0008891A0008891A0008891A000894
:1000C000891A0008891A0008891A0008891A000884
:1000D000891A0008891A0008891A0008891A000874
:1000E000E1190008891A0008891A0008891A00080D
:1000F000891A0008891A0008891A0008891A000854
:10010000891A0008891A0008891A0008891A000843
:10011000891A0008891A0008891A0008891A000833
:10012000891A0008891A0008891A0008891A000823
:10013000891A00080000000000000000891A000869
:10014000891A0008891A0008891A0008891A000803
:10015000891A0008891A0008891A0008891A0008F3
:10016000891A0008891A0008891A0008891A0008E3
:10017000891A0008891A0008891A0008000000007E
:1001800000000000891A00080000000000000000C4
:10019000891A00080000000000000000891A000809
:1001A000000000000000000000000000891A0008A4
:1001B000891A0008891A0008891A0008891A000893
:0401C000891A000890
:1001C40010B5054C237833B9044B13B10448AFF38D
:1001D40000800123237010BD0400002000000000F3
:1001E400D81A0008084B10B51BB108490848AFF3EA
:1001F40000800848036803B910BD074B002BFBD0EF
:10020400BDE81040184700BF0000000008000020AF
:10021400D81A00080400002000000000084B094A16
:100224001B6810B5A2FB03230446980900F0FAFAF0
:10023400214600224FF0FF3000F0B0FA002010BD3C
:1002440000000020D34D621008B50B4B1A6842F42D
:1002540000721A601A6842F480621A601A6842F4E2
:1002640080721A60032000F087FA0020FFF7D6FF9F
:1002740001F00EFB002008BD003C0240024A136856
:1002840001331360704700BF20000020014B186841
:10029400704700BF20000020002800F0A980F8B5B6
:1002A400036C04463BB1236CDB060CD50023012010
:1002B40084F83C30F8BD436480F83C3001F018FB0E
:1002C400236CDB06F2D4226C4A4923684A4D22F49B
:1002D400885222F0020242F0020222644A6822F4A6
:1002E40040324A604868626802434A605F68A66AAE
:1002F40004F1080191E8064027F480775F605868AC
:1003040040EA0E205860586820F0407058605868E1
:1003140001435960996821F4006199609968AE427B
:1003240042EA01029A6046D09968E26A21F070615B
:10033400996099680E439E60996821F040519960D4
:1003440099680A439A609968A569206A21F00201B4
:1003540099609A6842EA45029A605A68002833D143
:1003640022F400625A60DA6AE069276B666922F453
:100374007002DA62DD6A013845EA0050D862986892
:1003840020F400709860996841EA4721996099685F
:1003940021F4806199609A68002042EA86229A607A
:1003A4006064236C23F0030343F0010323640023FC
:1003B40084F83C30F8BD9A6822F070629A609A68BA
:1003C40022F040529A60BEE742F400625A605A68D2
:1003D40022F460425A604FF4604191FAA1F1626ADA
:1003E4005868B1FA81F1013A8A4002435A60BAE787
:1003F40001207047002301400100000F10B490F861
:100404003C3083B00022012B01925BD002689368D8
:100414000121DB0780F83C1014D42F4B2F4C1B68B0
:100424009168A4FB03439B0C03EB430341F00101DC
:1004340091600193019B2BB1019B013B0193019BB3
:10044400002BF9D19368DC0737D5036C23F4E06300
:1004540023F0010343F4807303645368590505D5FD
:10046400036C23F4405343F480530364036C13F488
:1004740080531CBF436C23F00603436400216FF0D8
:10048400220380F83C1013605368154943F08063DD
:1004940043F0200353604B68DB060BD1906810F0E7
:1004A40040500AD1936843F08043936003B05DF8F1
:1004B400044B70470B4B9A4209D0002003B05DF8FF
:1004C400044B7047022003B05DF8044B70479368F7
:1004D40013F04050E6D0F0E70000002083DE1B4319
:1004E40000230140002001400368D86C704700BF1E
:1004F400704700BF704700BF38B503681A68596871
:100504000446900701D58A0653D41A6859685207DD
:1005140001D50D061BD41A685968D00701D54A06BF
:1005240006D41A685968900601D54A0169D438BDC1
:100534001A68D507F5D5236C43F480332364204629
:10054400FFF7D6FF23686FF001021A60E9E7226C17
:10055400D00603D4226C42F4005222649A6812F446
:10056400401F1ED19A6B12F4401F02D09A685105A5
:1005740017D45A68520514D49A6812F0405F10D107
:10058400A26972B95A6822F080025A60236C23F47B
:1005940080532364236CDD0503D4236C43F00103EF
:1005A4002364204600F0F0FF23686FF00C021A6009
:1005B400B1E7226CD50603D4226C42F400722264A3
:1005C4009A6812F0405F14D1A26992B9DA6A12F4FF
:1005D400700F23D15A6822F020025A60236C23F44E
:1005E40080732364236CD90403D4236C43F0010384
:1005F4002364204600F09EFF23686FF012021A6005
:1006040083E7626C6FF0200542F0020262642046C8
:100614001D60FFF76FFF23681D6038BD9A685005A1
:10062400E7D4D7E7F0B590F83C3083B00022012B33
:10063400019258D00E680123092E374680F83C30C9
:1006440029D805688B682C6906EB460E072202FA46
:100654000EF224EA02022A612A6903FA0EF3134312
:100664002B614B68062B2CD803EB8303696B053B8A
:100674001F229A4021EA02026A636A6B07FA03F3B3
:1006840013436B63374B9D423FD0002380F83C30CB
:10069400184603B0F0BD05688C68EA68B7B207EB8A
:1006A40047031E3B4FF0070E0EFA03FE22EA0E022A
:1006B400EA60EA6804FA03F31343EB604B68062B21
:1006C400D2D90C2B12D803EB83042A6BA4F1230197
:1006D4001F238B4022EA03032B632B6B07FA01F1E0
:1006E40019432963CEE7022003B0F0BD03EB830274
:1006F400E96A413A1F23934021EA0303EB62E96A62
:1007040007FA02F30B43EB62BCE7122E23D0164B1D
:100714009E4207D0112EB8D1144A536843F4000303
:100724005360B2E71149124B4A68124C42F400027A
:100734004A601B68A4FB03239B0C03EB83035B004D
:100744000193019B002BA0D0019B013B0193019BD2
:10075400002BF9D199E7054A536843F480035360A9
:1007640093E700BF00200140120000100023014065
:100774000000002083DE1B43074AD1684FF6FF03C5
:100784000B40000243F0BF6300F4E06043F4003325
:100794000343D360704700BF00ED00E0194BDB68F2
:1007A400C3F3022330B4C3F10705042D03F1040499
:1007B40028BF0425062C18D9033B01249C40013C86
:1007C40022400124AC40013C214001FA03F30028FB
:1007D40042EA03020CDB00F1604000F561401201C3
:1007E400D2B280F8002330BC704700221346E8E7F9
:1007F400054B00F00F0012010344D2B21A7630BC4C
:10080400704700BF00ED00E0FCEC00E000F01F01C9
:1008140001234009024A8B4042F82030704700BF50
:1008240000E100E00138B0F1807F0ED2084B10B433
:10083400084C5860F02084F8230000220721104659
:100844009A6019605DF8044B70470120704700BF3F
:1008540010E000E000ED00E0044A136804280CBF37
:1008640043F0040323F004031360704710E000E036
:10087400704700BF08B5FFF7FBFF08BD2DE9F04F37
:10088400DFF8D8C1D1F800E0DFF8D4816D4F83B030
:10089400002603E00136102E00F08B800123B340C4
:1008A40033EA0E02F6D1D1F8049029F01004022C98
:1008B40000F082804FEA460A0322056802FA0AF22F
:1008C400D24309F0030B15400BFA0AFB013C4BEA37
:1008D4000505012C056040F29180C5688C682A40AA
:1008E40004FA0AF4224319F0805FC260D2D00022D5
:1008F4000192DCF8444044F48044CCF84440DCF8F1
:10090400444026F0030505F1804504F4804405F5D0
:100914009C35019406F0030B019CD5F808A04FEA1E
:100924008B0B0F2404FA0BF440452AEA040A1AD06C
:1009340002F1804202F5013290426FD0424A904265
:1009440070D0424A904271D0414A904272D0414A9A
:10095400904273D0404A90420BBF0622072402FA09
:100964000BF204FA0BF24AEA0202AA603A68DC4388
:1009740019F4803F14BF1A4322403A607A6819F48C
:10098400003F14BF1A4322407A60BA6819F4801FEA
:1009940014BF1A432240BA60FA6819F4001F06F122
:1009A40001060CBF04EA02031343102EFB607FF41C
:1009B40075AF03B0BDE8F08F4FEAD60A00EB8A0AA0
:1009C40006F00704DAF820500A69A4004FF00F0B70
:1009D4000BFA04FB25EA0B05A2402A43CAF820209F
:1009E4004FEA460A0322046802FA0AF2D24309F0E3
:1009F4000305144005FA0AF52C4304608468CD68A5
:100A0400144005FA0AF5254385604468C9F30015C6
:100A140024EA0304B5402C4344605EE7012202FA51
:100A24000BF2A0E7022202FA0BF29CE7032202FA7D
:100A34000BF298E7042202FA0BF294E7052202FA79
:100A44000BF290E7003C014000080240000C024019
:100A54000010024000140240001802400038024016
:100A64000000024002B9090481617047704700BF69
:100A7400044A5169014200D1704708B55061FFF73B
:100A8400F5FF08BD003C014030B583B0234B002284
:100A940001921A6C42F080521A641B6C03F080536A
:100AA4000193019B4FF4803393FAA3F3B3FA83F3D6
:100AB40003F1845303F560339B0001221A60FFF7AE
:100AC400E5FB174C054605E0FFF7E0FB401BB0F5DE
:100AD4007A7F20D86368DA03F6D54FF4003393FAAB
:100AE400A3F3B3FA83F303F1845303F560339B0058
:100AF40001221A60FFF7CAFB094C054605E0FFF71F
:100B0400C5FB401BB0F57A7F05D863689B03F6D517
:100B1400002003B030BD032003B030BD00380240D4
:100B240000700040564A136803F00F038B422DE90E
:100B3400F04109D2CBB21370136803F00F0399424A
:100B440002D00120BDE8F08103689A0706D54D4D17
:100B54008268AC6824F0F0042243AA60DF070646EA
:100B64000C4626D54368012B00F084809A1E012A86
:100B7400444A126878D99107E3D5424DAA6822F015
:100B840003021343AB60FFF781FB7368012B074635
:100B940041F288384CD0022B55D0032B05D15DE0AF
:100BA400FFF774FBC01B404561D8AB6813F00C0F12
:100BB400F6D1334A136803F00F039C4206D2E3B222
:100BC4001370136803F00F039C42BAD133685A07B9
:100BD40006D52C48F268816821F4E0510A4382600A
:100BE4001B0707D5274A3169936823F4604343EA16
:100BF400C103936000F034FA224B0146F0229B6853
:100C040092FAA2F2B2FA82F203F0F003D3401E4841
:100C14001E4AC35C002021FA03F31360FFF7FEFAB7
:100C24000020BDE8F081FFF731FBC01B40451ED812
:100C3400AB6803F00C03042BF5D1BAE7FFF726FBEE
:100C4400C01B404513D8AB6803F00C03082BF5D147
:100C5400AFE7FFF71BFBC01B404508D8AB6803F0A8
:100C64000C030C2BF5D1A4E7900186D469E703208B
:100C7400BDE8F081034A126895033FF57EAF60E753
:100C8400003C024000380240F01A00080000002036
:100C9400014B1868704700BF000000202DE9F041A7
:100CA4000368DA0782B0044636D5AA498A6802F096
:100CB4000C02042A00F0A5808A6802F00C02082ABB
:100CC40000F09B80A3498A6802F00C020C2A00F011
:100CD40026816368B3F5803F00F00A81B3F5A02F45
:100CE40000F08B819B4D2A6822F480322A602A68A6
:100CF40022F480222A60002B40F0FF80FFF7C6FA1E
:100D0400064605E0FFF7C2FA801B642800F203815F
:100D14002B689903F6D423689A0734D58D4A9168D1
:100D240011F00C0F78D0916801F00C01082970D0F3
:100D340088498A6802F00C020C2A00F08281E36878
:100D4400002B00F0F180844B824D01221A60FFF7E2
:100D54009DFA064605E0FFF799FA801B022800F287
:100D6400DA802B687B4A9807F5D51168F82393FA43
:100D7400A3F32069B3FA83F321F0F80100FA03F333
:100D84000B43136023681A0714D56369002B4ED0F4
:100D9400724B704D01221A60FFF778FA064605E09F
:100DA400FFF774FA801B022800F2B5806B6F9F076F
:100DB400F6D5236859074AD4A269D2B1654B99681C
:100DC40001F00C0108292ED0022A654A4FF00001D7
:100DD400116000F0BA801C46FFF758FA054605E09A
:100DE400FFF754FA401B022800F2958023689B0108
:100DF400F6D4002002B0BDE8F0814A6857027FF5BE
:100E040061AF544A1268950386D56268002A83D17B
:100E140009E0526857028BD44E4A1268950755D59B
:100E2400E268012A52D0012002B0BDE8F0814B4AA9
:100E3400484D1360FFF72AFA064604E0FFF726FA46
:100E4400801B022867D86B6F9807F7D4B1E7414B32
:100E5400444D002201921A6C42F080521A641B6CB9
:100E640003F080530193019B2B6843F480732B6040
:100E7400FFF70CFA064604E0FFF708FA801B022885
:100E840049D82B68DA05F7D5A368012B00F0DE807A
:100E9400052B00F0BC802F4D2A6F22F001022A6737
:100EA4002A6F22F004022A67002B40F0B980FFF772
:100EB400EDF941F28836074604E0FFF7E7F9C01B75
:100EC400B04228D82B6F9807F7D475E7214DF82244
:100ED400296892FAA2F22069B2FA82F221F0F801AA
:100EE40000FA02F20A432A601A077FF563AF4CE75F
:100EF400184A136843F480331360FFF7C7F9154D9C
:100F0400064604E0FFF7C2F9801B642803D82B6867
:100F14009803F7D5FFE6032002B0BDE8F0814A68E4
:100F240056027FF5D6AE6CE70B4A0A4D1360FFF705
:100F3400ADF9064604E0FFF7A9F9801B0228EAD8B8
:100F44002B689907F7D423681DE71D46FFF79EF920
:100F540006460EE00038024000004742800E474239
:100F64006000474200700040FFF790F9801B0228A0
:100F7400D1D82B68384A9901F6D447F6C07393FA4E
:100F8400A3F34FF4403CB3FA83F89CFAACF34FF06C
:100F9400706EB3FA83FC9EFAAEFE4FF0E046BEFAE2
:100FA4008EFE96FAA6F6A36A606A256AE76959086E
:100FB4002F4300FA08F3E56A206B013947EA03047A
:100FC40001FA0CF32343B6FA86F105FA0EF400FA9B
:100FD40001F1234321480B4301215360016014466E
:100FE400FFF754F9054604E0FFF750F9401B0228C7
:100FF40091D823689A01F7D5FBE6174B1A6842F497
:1010040080221A601A6842F480321A6075E7124B23
:101014001A6F42F004021A671A6F42F001021A674B
:10102400FFF734F90C4D074641F2883605E0FFF727
:101034002DF9C01BB0423FF66EAF2B6F9B07F6D560
:10104400BAE64A6856023FF57AAEE5E6024A136FFD
:1010540043F001031367E3E70038024060004742AE
:10106400314A906800F00C00082808D00C2831D0D0
:101074002E4B2F4A04280CBF18461046704753685D
:10108400516803F03F0311F4800F47F6C0705168B4
:1010940090FAA0F047F6C07202EA0102B0FA80F0BA
:1010A40022FA00F014BF214A214AB2FBF3F31E4A8C
:1010B40003FB00F352684FF4403090FAA0F002F4BE
:1010C4004032B0FA80F022FA00F001304000B3FB65
:1010D400F0F070475368516803F03F0311F4800F38
:1010E40047F6C070516890FAA0F047F6C07202EA61
:1010F4000102B0FA80F022FA00F014BF0B4A0C4A45
:10110400B2FBF3F3084A03FB00F352684FF0E040EC
:1011140090FAA0F002F0E042B0FA80F022FA00F077
:10112400B3FBF0F0704700BF0038024000127A00B1
:101134000024F400F0B5046A8F680E68144D24F09E
:1011440001040462036A4468826923F0020322F002
:101154007302A84243EA070342EA060209D005F5EE
:101164008065A84205D04968446082614163036296
:10117400F0BDCF684E698D6923F0080324F4407EE6
:101184003B4346EA050423F0040344EA0E04EAE779
:1011940000000140026A22F48072F0B48E680F6885
:1011A4000262036A134D4268C46923F4007324F095
:1011B4007304A84243EA062347EA040709D00E4C05
:1011C400A04206D049684260C761C163F0BC0362B3
:1011D4007047CE684D698C6923F4006322F4405251
:1011E40043EA062342EA051223F4806342EA041226
:1011F400E8E700BF0000014000040140F0B4046AC5
:101204008F680E68104D24F480540462026A4468A6
:10121400C36922F4005223F4E643A84242EA0732A7
:1012240043EA06230AD005F58065A84206D049683A
:101234004460C361F0BC0164026270474D6924F4E8
:10124400804444EA8514F2E7000001400368012267
:10125400186A02FA01F120EA010010B418621A6A4D
:101264000A4C1143A34219620AD0094A934207D097
:101274001A685DF8044B42F0010200201A607047BE
:101284005A6C42F400425A64F2E700BF0000014085
:1012940000040140364A0368904270B454D0B0F15F
:1012A400804F30D0A2F57C4290422CD002F580626F
:1012B400904228D002F58062904224D002F5784210
:1012C400904220D002F57052904230D002F58062F4
:1012D40090422CD002F58062904228D0A2F5983238
:1012E400904224D002F58062904220D002F58062C0
:1012F40090421CD08C680A6803600123C462826235
:1013040070BC436170474A681A4C8E680D6823F0BC
:1013140070031343CA6823F440731343A042036069
:10132400C66285621DD00123436170BC7047CA68E0
:101334008C68096823F44073134303600123C46277
:10134400816270BC436170474A68CC688E680D68DE
:1013540023F070031A4322F4407222430260C662EF
:1013640085620B6903630123436170BC704700BF4E
:101374000000014000040140B8B190F8393010B5C4
:1013840003F0FF0204465BB1022384F8393020687D
:10139400211DFFF77FFF012384F83930002010BDA1
:1013A40080F8382000F0DAFAEEE70120704700BF39
:1013B400F0B5046AD1F808E00E68154D24F0100465
:1013C4000462036A4768826923F0200322F4E64238
:1013D400A84243EA0E1342EA062208D00D4CA0426A
:1013E40005D049684760826181630362F0BDCE68BD
:1013F4004D698C6927F4406723F0800343EA0613A0
:1014040047EA850523F0400345EA8407E9E700BF7E
:10141400000001400004014038B590F83830012B39
:101424002BD00D4602230121044680F8381080F8A1
:1014340039300C2A1AD8DFE802F0351919190719BE
:10144400191947191919220029460068FFF7B0FF36
:1014540023682869996941F400619961996921F4C3
:10146400806199619A6942EA00229A61012300200D
:1014740084F8393084F8380038BD022038BD294654
:101484000068FFF7BBFE23682869D96941F400614D
:10149400D961D96921F48061D961DA6942EA00220B
:1014A400DA61E3E729460068FFF744FE23682A6906
:1014B400996941F008019961996921F004019961E0
:1014C40099690A439A61D1E729460068FFF762FEE9
:1014D40023682A69D96941F00801D961D96921F0E1
:1014E4000401D961D9690A43DA61BFE790F8383059
:1014F400012B1DD002460220136830B482F8390053
:101504005C6824F0700403C95C605C682043586024
:10151400986820F0800098609868002401250143B1
:101524009960204682F8395082F8384030BC7047C0
:101534000220704738B50368104C1B689B0712D40F
:101544000F4B1A880F4840F6B7339A4294BF0122D2
:1015540000222021FFF786FA2388084A082B04BFBB
:101564000023138038BD2588FEF7BEFF2288044B74
:10157400013223F815002280E3E700BFBC000020FD
:10158400AC00002000000240704700BF70B594B06A
:10159400002229490092086C284B40F080500864CE
:1015A400096C01F08051009100990192196841F48D
:1015B400404119601B680E9203F4404302240193D6
:1015C400012510210822B42307A8019E07940D9435
:1015D4001194129413940A950B910F921093FFF7A0
:1015E4005DFB00B1FEE7FFF74FFA034600B1FEE7EB
:1015F4004FF480520F264FF4A055052102A80394FE
:101604000493029605950692FFF78CFA044600B1FE
:10161400FEE7FFF73DFB0A4BA3FB00308009FFF711
:1016240001F90420FFF718F9224621464FF0FF3054
:10163400FFF7B4F814B070BD0038024000700040E9
:10164400D34D621080B58EB00024FEF7FDFDFFF788
:101654009DFF864B01941A6B8548864D42F0040227
:101664001A631A6B02F004020192019A02941A6B33
:1016740042F080021A631A6B02F080020292029A0C
:1016840003941A6B42F001021A631A6B02F001020E
:101694000392039A04941A6B42F002021A631B6BBE
:1016A40003F00203049322462021049BFFF7DAF996
:1016B40022464FF440717048FFF7D4F94FF40052BA
:1016C4006E4B6D48079207A9089301270994FFF709
:1016D400D5F8202307A96648079309940A94089724
:1016E400FFF7CCF84FF4407307A9634807930897B2
:1016F40009940A94FFF7C2F8224621462820FFF7EE
:101704004DF82820FFF782F85D49AC60B4226423C9
:1017140028462C6185E80600EB60FFF72DFE00B13A
:10172400FEE7034605A9284605930693FFF7DEFE68
:1017340000B1FEE702466024322309900B9007A90A
:10174400284607940893FFF767FE00B1FEE70422DA
:1017540007A92846FFF760FE00B1FEE7082207A9A3
:101764002846FFF759FE00B1FEE70C2207A92846D8
:10177400FFF752FE064600B1FEE7424C284600F051
:1017840005F9414D414AA66008234FF480312046B3
:10179400E3612661A7612662E662E660266366610C
:1017A40025606160A262FEF777FD034600B1FEE7A3
:1017B40007A92046079308970993FEF733FF00B162
:1017C400FEE7022507A9204607970895FEF72AFF9A
:1017D40000B1FEE70323204607A907950893FEF707
:1017E40021FF00B1FEE70323042507A92548079339
:1017F4000895FEF717FF00B1FEE7052307A9214866
:1018040007950893FEF70EFF00B1FEE7062307A92C
:101814001C4807930893FEF705FF00B1FEE7072372
:1018240007A9184807930893FEF7FCFE00B1FEE7EA
:1018340007A90824134807940894FEF7F3FE014609
:1018440000B1FEE70B48FFF701FD29460948FFF701
:10185400FDFC21460748FFF7F9FC0C210548FFF77A
:10186400F5FC0848FEF7CAFDFEE700BF0038024059
:10187400000002402800002000080240000021105F
:101884000008004064000020002001400100000F17
:1018940008B50720FEF770FF002211466FF00B0019
:1018A400FEF77CFF002211466FF00A00FEF776FF78
:1018B400002211466FF00900FEF770FF0022114666
:1018C4006FF00400FEF76AFF002211466FF0030078
:1018D400FEF764FF002211466FF00100FEF75EFF81
:1018E400002211464FF0FF30BDE80840FEF756BF16
:1018F4000268174B9A4200D0704730B587B0002475
:1019040003F58C3300945A6C124842F480725A6482
:101914005B6C039403F48073009301A9DF23032514
:10192400009A01930295FEF7A9FF012301A90A4831
:10193400019302950394FEF7A1FF2246214612204B
:10194400FEF72CFF1220FEF761FF07B030BD00BF89
:1019540000200140000002400004024002680A4BDB
:101964009A4200D0704782B003F50C3300220192F2
:101974001A6C42F004021A641B6C03F00403019312
:10198400019B02B0704700BF0008004002680A4B88
:101994009A4200D0704710B586B0022200234FF45B
:1019A400707401A90548019402920592039304936B
:1019B400FEF764FF06B010BD0008004000040240BA
:1019C40008B5FEF75BFCBDE80840FEF753BF00BF57
:1019D4000148FEF791BD00BF640000204FF40050A1
:1019E400FFF746B81049114BD1F8882042F4700231
:1019F40010B4C1F888201A680D4C002042F001028E
:101A04001A6098601A6822F0847222F480321A6094
:101A14005C601A684FF0006422F480221A60D86077
:101A24008C605DF8044B704700ED00E00038024024
:101A340010300024DFF834D0002103E00C4B5B5855
:101A4400435004310B480C4B42189A42F6D30B4ACC
:101A540002E0002342F8043B094B9A42F9D3FFF712
:101A6400C1FF00F011F8FFF7EDFD70470000022000
:101A7400081B0008000000200400002004000020CF
:101A8400C0000020FEE7000070B50E4B0E4CE41AB7
:101A9400A41000251E46A54204D056F825309847C8
:101AA4000135F8E700F016F8084C094BE41AA410C5
:101AB40000251E46A54204D056F825309847013526
:101AC400F8E770BD001B0008001B0008041B000899
:101AD400001B0008F8B500BFF8BC08BC9E46704760
:0C1AE400F8B500BFF8BC08BC9E46704777
:101AF00000000000010203040102030406070809B4
:041B0000E9010008EF
:041B0400C50100080F
:041B08000024F400C1
:0400000508001A399C
:00000001FF
