:020000040800F2
:10000000000002203D1200088D1200088D12000829
:100010008D1200088D1200088D12000800000000EB
:100020000000000000000000000000008D12000829
:100030008D120008000000008D120008B9110008A0
:100040008D1200088D1200088D1200088D12000814
:100050008D1200088D1200088D1200088D12000804
:100060008D1200088D1200088D1200088D120008F4
:100070008D1200088D1200088D1200088D120008E4
:100080008D1200088D1200088D1200088D120008D4
:100090008D1200088D1200088D1200088D120008C4
:1000A0008D1200088D1200088D1200088D120008B4
:1000B0008D1200088D1200088D1200088D120008A4
:1000C0008D1200088D1200088D1200088D12000894
:1000D0008D1200088D1200088D1200088D12000884
:1000E000C91100088D1200088D1200088D12000839
:1000F0008D120008D11100088D1200088D12000821
:100100008D1200088D1200088D1200088D12000853
:100110008D1200088D1200088D1200088D12000843
:100120008D1200088D1200088D1200088D12000833
:100130008D12000800000000000000008D12000871
:100140008D1200088D1200088D1200088D12000813
:100150008D1200088D1200088D1200088D12000803
:100160008D1200088D1200088D1200088D120008F3
:100170008D1200088D1200088D120008000000008A
:10018000000000008D1200080000000000000000C8
:100190008D12000800000000000000008D12000811
:1001A0000000000000000000000000008D120008A8
:1001B0008D1200088D1200088D1200088D120008A3
:0401C0008D12000894
:1001C40010B5054C237833B9044B13B10448AFF38D
:1001D40000800123237010BD0400002000000000F3
:1001E400DC120008084B10B51BB108480849AFF3EE
:1001F40000800848036803B910BD074B002BFBD0EF
:10020400BDE81040184700BF00000000DC120008E1
:10021400080000200400002000000000084B094AE8
:100224001B6810B5A2FB03230446980900F088F864
:1002340021464FF0FF30002200F040F8002010BDAE
:1002440000000020D34D621008B50B4B1A6842F42D
:1002540000721A601A6842F480621A601A6842F4E2
:1002640080721A60032000F017F80020FFF7D6FF11
:1002740000F050FF002008BD003C0240024A136811
:1002840001331360704700BF20000020014B186841
:10029400704700BF20000020074AD1684FF6FF03D3
:1002A4000B4043F0BF6300F0070043F4003343EA1C
:1002B4000023D360704700BF00ED00E0184BDB68FB
:1002C400C3F3022330B4C3F10705042D03F104047E
:1002D40028BF0425062C17D9033B01249C40013C6C
:1002E40022400124AC40013C21409940002842EACC
:1002F40001020CDB00F1604000F561401201D2B252
:1003040080F8002330BC704700221346E9E7054B10
:1003140000F00F0012010344D2B21A7630BC7047C9
:1003240000ED00E0FCEC00E000F01F0101234009B7
:10033400024A8B4042F82030704700BF00E100E0E1
:100344000138B0F1807F0ED2084B10B4084C5860CD
:10035400F02084F823000022072110469A601960D7
:100364005DF8044B70470120704700BF10E000E0C7
:1003740000ED00E0044A136804280CBF43F00403B2
:1003840023F004031360704710E000E0704700BFDF
:1003940008B5FFF7FBFF08BD2DE9F04F85B00F68E6
:1003A400DFF820E2DFF820C27F4E0197002303E04C
:1003B4000133102B00F09B800122019C9A401440D1
:1003C4009442F5D14D6825F0100ABAF1020F00F0FD
:1003D40091804FEA43090322D0F800B002FA09F2EF
:1003E400D24305F0030802EA0B0B08FA09F80AF1F4
:1003F400FF3A4BEA0808BAF1010FC0F8008040F256
:10040400A280D0F80C808F6802EA080207FA09F883
:1004140042EA0802C260EA00CAD54FF0000ACDF8E9
:100424000CA0DEF8442042F48042CEF84420DEF8EA
:10043400448023F0030202F1804208F4804802F56C
:100444009C32CDF80C8003F00308DDF80C90D2F850
:1004540008B04FEA88084FF00F0909FA08F9604517
:100464002BEA09091CD0514FB84200F08480504F48
:10047400B84200F085804F4FB84200F086804E4F5E
:10048400B84200F087804D4FB84200F088804C4F4E
:10049400B8420CBF4FF0060A4FF0070A0AFA08FAEE
:1004A4004AEA090AC2F808A032686FEA0408EF03AE
:1004B4004CBF224308EA020232607268AF034CBFA9
:1004C400224308EA02027260B268EF024CBF224380
:1004D40008EA0202B260F268AD0203F1010354BFFC
:1004E40008EA02041443102BF4607FF465AF05B0EE
:1004F400BDE8F08F4FEAD30900EB890903F0070840
:10050400D9F820204FEA88084FF00F0A0AFA08FAAF
:1005140022EA0A0A0A6902FA08F24AEA0202C9F855
:1005240020204FEA43090322D0F800A002FA09F27E
:10053400D24305F0030802EA0A0A08FA09F84AEA6B
:100544000808C0F80080D0F80880CF6802EA080ADA
:1005540007FA09F84AEA0808C0F80880D0F804A0A5
:10056400C5F300182AEA040A08FA03F84AEA080854
:10057400C0F8048045E74FF0010A0AFA08FA8FE749
:100584004FF0020A0AFA08FA8AE74FF0030A0AFA55
:1005940008FA85E74FF0040A0AFA08FA80E74FF0F0
:1005A400050A0AFA08FA7BE7003C0140000402400D
:1005B40000080240000C02400010024000140240F7
:1005C40000180240003802400000024002B9090449
:1005D400816170474369594041617047704700BF6A
:1005E400044A5169084208B502D05061FFF7F6FF8A
:1005F40008BD00BF003C014030B583B0234B00224E
:1006040001921A6C42F080521A641B6C03F08053FE
:100614000193019B4FF4803393FAA3F3B3FA83F36A
:1006240003F1845303F560339B0001221A60FFF742
:100634002DFE174C054605E0FFF728FE401BB0F5DC
:100644007A7F20D86368DA03F6D54FF4003393FA3F
:10065400A3F3B3FA83F303F1845303F560339B00EC
:1006640001221A60FFF712FE094C054605E0FFF768
:100674000DFE401BB0F57A7F05D863689B03F6D561
:10068400002003B030BD032003B030BD0038024069
:1006940000700040564A136803F00F038B422DE9A3
:1006A400F0410C46064609D2CBB21370136803F02E
:1006B4000F038B4202D00120BDE8F08133689A0712
:1006C40006D54C48B268816821F0F0010A43826083
:1006D400DF0726D57368012B00F084809A1E012A57
:1006E400444A126878D99107E5D5424DAA6822F0A8
:1006F40003021343AB60FFF7C9FD7368012B074680
:1007040041F288384CD0022B55D0032B05D15DE043
:10071400FFF7BCFDC01B404561D8AB6813F00C0F5C
:10072400F6D1334A136803F00F039C4206D2E3B2B6
:100734001370136803F00F03A342BCD133685A0744
:1007440006D52C48F268816821F4E0510A4382609E
:100754001B0707D5274A3169936823F4604343EAAA
:10076400C103936000F032FA224B0146F0229B68E9
:1007740092FAA2F203F0F003B2FA82F21E4D1F4C79
:10078400D3400020EB5C21FA03F32360FFF746FD1E
:100794000020BDE8F081FFF779FDC01B40451ED85D
:1007A400AB6803F00C03042BF5D1BAE7FFF76EFD39
:1007B400C01B404513D8AB6803F00C03082BF5D1DC
:1007C400AFE7FFF763FDC01B404508D8AB6803F0F3
:1007D4000C030C2BF5D1A4E7900186D46BE703201E
:1007E400BDE8F081034A126895033FF57EAF62E7E6
:1007F400003C024000380240F412000800000020CF
:10080400014B1868704700BF000000202DE9F04339
:100814000368DA0783B0044636D5A9498A6802F02A
:100824000C02042A00F0A4808A6802F00C02082A50
:1008340000F09A80A2498A6802F00C020C2A00F0A7
:1008440024816368B3F5803F00F00881B3F5A02FDD
:1008540000F089819A4D2A6822F480322A602A683D
:1008640022F480222A60002B40F0FD80FFF70EFD69
:10087400064605E0FFF70AFD801B642800F20181AB
:100884002B689903F6D423689A0733D58C4A916868
:1008940011F00C0F77D0916801F00C0108296FD08A
:1008A40087498A6802F00C020C2A00F08081E36810
:1008B400002B00F0EF80834B814D01221A60FFF77B
:1008C400E5FC064605E0FFF7E1FC801B022800F288
:1008D400D8802B687A4A9807F5D51168F82090FAE1
:1008E400A0F02369B0FA80F021F0F80183400B43B3
:1008F400136023681A0714D56369002B4ED0724B1A
:100904006F4D01221A60FFF7C1FC064605E0FFF7B0
:10091400BDFC801B022800F2B4806B6F9F07F6D5E4
:10092400236859074AD4A269D2B1654B996801F08A
:100934000C0108292ED0022A644A4FF000011160EC
:1009440000F0B9801C46FFF7A1FC054605E0FFF75F
:100954009DFC401B022800F2948023689B01F6D47E
:10096400002003B0BDE8F0834A6857027FF562AF08
:10097400534A1268950387D56268002A84D109E036
:10098400526857028CD44E4A1268950755D5E268CE
:10099400012A52D0012003B0BDE8F0834A4A484DF1
:1009A4001360FFF773FC064604E0FFF76FFC801B3F
:1009B400022866D86B6F9807F7D4B1E7404B444DD3
:1009C400002201921A6C42F080521A641B6C03F0EC
:1009D40080530193019B2B6843F480732B60FFF7D2
:1009E40055FC064604E0FFF751FC801B022848D85A
:1009F4002B68DA05F7D5A368012B00F0DD80052B01
:100A040000F0BB802E4D2A6F22F001022A672A6F64
:100A140022F004022A67002B40F0B880FFF736FC6E
:100A240041F28836074604E0FFF730FCC01BB042B1
:100A340027D82B6F9807F7D475E7214DF82029683C
:100A440090FAA0F02269B0FA80F021F0F801824017
:100A54000A432A601A077FF564AF4DE7184A136802
:100A640043F480331360FFF711FC154D064604E090
:100A7400FFF70CFC801B642803D82B689803F7D578
:100A840001E7032003B0BDE8F0834A6856027FF50E
:100A9400D8AE6DE70B4A0A4D1360FFF7F7FB064625
:100AA40004E0FFF7F3FB801B0228EAD82B689907C0
:100AB400F7D423681EE71D46FFF7E8FB06460EE061
:100AC4000038024000004742800E4742600047421F
:100AD40000700040FFF7DAFB801B0228D1D82B6896
:100AE400384A9901F6D447F6C07E9EFAAEFE4FF41A
:100AF4004037BEFA8EFE97FAA7F74FF07065B7FA43
:100B040087F795FAA5F54FF0E049B5FA85F599FA16
:100B1400A9F9A36A666AD4F82080D4F81CC0E06AF4
:100B2400216BB9FA89F45B0806FA0EF6013B48EA30
:100B34000C0E4EEA0606BB40A8403343A1400343D3
:100B440021480B430121536001601446FFF79EFBCB
:100B5400054604E0FFF79AFB401B022891D823685E
:100B64009A01F7D5FCE6174B1A6842F480221A6002
:100B74001A6842F480321A6075E7124B1A6F42F019
:100B840004021A671A6F42F001021A67FFF77EFB2C
:100B94000C4D074641F2883605E0FFF777FBC01B92
:100BA400B0423FF66EAF2B6F9B07F6D5BBE64A68A3
:100BB40056023FF57CAEE6E6024A136F43F00103AA
:100BC4001367E3E70038024060004742344988680D
:100BD40000F00C00082830B409D00C2834D0314B74
:100BE400314A30BC04280CBF1846104670474A6886
:100BF4004D6802F03F0447F6C0734A68680293FAEE
:100C0400A3F347F6C07000EA02004ABF2549264A0A
:100C1400B1FBF4F22249B3FA83F320FA03F058BF8C
:100C2400B2FBF4F202FB00F34FF44032486892FA4C
:100C3400A2F200F44030B2FA82F2D0400130400017
:100C440030BCB3FBF0F070474A684D6802F03F04D3
:100C540047F6C0734A68690293FAA3F347F6C07073
:100C640000EA02004ABF0F490F4AB1FBF4F20C49F3
:100C7400B3FA83F320FA03F058BFB2FBF4F202FB99
:100C840000F34FF0E042486892FAA2F200F0E0402C
:100C9400B2FA82F230BCD040B3FBF0F0704700BF30
:100CA4000038024000127A000024F4000368DA6875
:100CB40042F00102DA601A6842F001021A60002070
:100CC400704700BF704700BF704700BF704700BF48
:100CD400704700BF704700BF03681A69910710B5D9
:100CE400044602D5DA68920762D41A69500702D51D
:100CF400DA68510749D41A69120702D5DA6810076D
:100D040031D41A69D20602D5DA68D00618D41A6921
:100D1400D10702D5DA68D2076BD41A69100602D556
:100D2400DA6811066DD41A69520602D5DA685006DB
:100D340057D41A69910602D5DA68920649D410BDCF
:100D44006FF010021A61DB69082213F4407F2276E7
:100D5400204661D1FFF7B8FF2046FFF7B9FF002214
:100D640023682276D3E76FF008021A61DB69042254
:100D740099072276204655D1FFF7A6FF2046FFF7B4
:100D8400A7FF002223682276BBE76FF004021A61F2
:100D94009B69022213F4407F227620463FD1FFF75D
:100DA40093FF2046FFF794FF002223682276A2E7F0
:100DB4006FF002021A619B6901229B07027628D117
:100DC400FFF782FF2046FFF783FF00222368227685
:100DD4008BE76FF0200220461A61BDE8104000F056
:100DE400B3B86FF040021A612046FFF773FF23681F
:100DF4009FE76FF001021A612046FFF763FF236843
:100E04008BE76FF080021A61204600F09FF8236898
:100E140089E7FFF75BFFD8E7FFF758FF9FE7FFF786
:100E240055FFC1E7FFF752FFABE700BF364A03683F
:100E3400904270B454D0B0F1804F30D0A2F57C42CF
:100E440090422CD002F58062904228D002F5806254
:100E5400904224D002F57842904220D002F570529C
:100E6400904230D002F5806290422CD002F580622C
:100E7400904228D0A2F59832904224D002F58062A4
:100E8400904220D002F5806290421CD08C680A689F
:100E940003600123C462826270BC436170474A6884
:100EA4001A4C8E680D6823F070031343CA6823F448
:100EB40040731343A0420360C66285621DD00123C0
:100EC400436170BC7047CA688C68096823F4407336
:100ED400134303600123C462816270BC43617047A1
:100EE4004A68CC688E680D6823F070031A4322F4B4
:100EF400407222430260C66285620B690363012368
:100F0400436170BC704700BF000001400004014011
:100F1400C0B190F8393010B503F0FF02044663B154
:100F24002146022351F8040B84F83930FFF77EFF81
:100F3400012384F83930002010BD80F8382000F0F7
:100F440019F9EDE701207047704700BF704700BFF3
:100F540008B502484021FFF73DFBFAE700080240CC
:100F640070B594B0002229490092086C284B40F0D7
:100F740080500864096C01F080510091009901923D
:100F8400196841F4404119601B680E9203F4404310
:100F940002240193012510210822B42307A8019EED
:100FA40007940D941194129413940A950B910F9233
:100FB4001093FFF72BFC30BBFFF71EFB034610BB5F
:100FC4004FF480520F264FF4A05502A80521039434
:100FD4000493029605950692FFF75CFB044690B9CC
:100FE400FFF70EFC0B4BA3FB00308009FFF7A8F9B9
:100FF4000420FFF7BFF94FF0FF3021462246FFF7E8
:101004005DF914B070BDFFF7A3FF00BF00380240C4
:1010140000700040D34D621000B589B00024FFF782
:1010240013F9FFF79DFF354B00941A6B3448354D87
:1010340042F004021A631A6B02F004020092009A4E
:1010440001941A6B42F080021A631A6B02F0800258
:101054000192019A02941A6B42F001021A631B6B0B
:1010640003F00103029322462021029BFFF7AEFA0C
:10107400224625484FF4A071FFF7A8FA4FF4005216
:10108400224B2148039203A9049301260594FFF7F8
:1010940083F9202303A91A4803930594069404961C
:1010A400FFF77AF94FF4A07303A917480393049642
:1010B40005940694FFF770F9214622462820FFF78D
:1010C400FDF82820FFF730F91149AC6049F6404299
:1010D40041F2883328462C6185E80600EB60FFF76F
:1010E40017FF48B92846FFF7E1FD07484FF4807120
:1010F4000122FFF76BFAF8E7FFF72AFF00380240F6
:1011040000000240240000200008024000002110DA
:101114000020004008B50720FFF7BEF800210A466A
:101124006FF00B00FFF7CAF800210A466FF00A00BF
:10113400FFF7C4F800210A466FF00900FFF7BEF874
:1011440000210A466FF00400FFF7B8F800210A46B0
:101154006FF00300FFF7B2F800210A466FF00100B8
:10116400FFF7ACF800210A464FF0FF30BDE8084015
:10117400FFF7A4B802680E4B9A4200D0704700B53E
:1011840083B0002103F5063301911A6C42F4807296
:101194001A641B6C03F4807301930A462D20019B8F
:1011A400FFF78CF82D20FFF7BFF803B05DF804FBC0
:1011B4000020004008B5FFF761F8BDE80840FFF7DC
:1011C400E7B800BF4FF40050FFF70ABA08B5044867
:1011D4004021FFF7FFF90348BDE80840FFF77CBD55
:1011E40000080240240000201049114BD1F8882047
:1011F40042F4700210B4C1F888201A680D4C002023
:1012040042F001021A6098601A6822F0847222F493
:1012140080321A605C601A684FF0006422F4802205
:101224001A60D8608C605DF8044B704700ED00E0F4
:101234000038024010300024DFF834D0002103E0ED
:101244000C4B5B58435004310B480C4B42189A42E8
:10125400F6D30B4A02E0002342F8043B094B9A42BE
:10126400F9D3FFF7C1FF00F011F8FFF7D5FE70477F
:10127400000002200C1300080000002004000020DD
:101284000400002060000020FEE7000070B50E4B53
:101294000E4CE41AA41000251E46A54204D056F8AC
:1012A400253098470135F8E700F016F8084C094B4B
:1012B400E41AA41000251E46A54204D056F8253091
:1012C40098470135F8E770BD0413000804130008BB
:1012D4000813000804130008F8B500BFF8BC08BCE4
:1012E4009E467047F8B500BFF8BC08BC9E467047E0
:1012F40000000000010203040102030406070809B8
:04130400E9010008F3
:04130800C501000813
:04130C000024F400C5
:040000050800123DA0
:00000001FF
