:020000040800F2
:1000000000000220AD0E0008FD0E0008FD0E0008E5
:10001000FD0E0008FD0E0008FD0E000800000000A7
:10002000000000000000000000000000FD0E0008BD
:10003000FD0E000800000000FD0E0008450E00083F
:10004000FD0E0008FD0E0008FD0E0008FD0E000864
:10005000FD0E0008FD0E0008FD0E0008FD0E000854
:10006000FD0E0008FD0E0008FD0E0008FD0E000844
:10007000FD0E0008FD0E0008FD0E0008FD0E000834
:10008000FD0E0008FD0E0008FD0E0008FD0E000824
:10009000FD0E0008FD0E0008FD0E0008FD0E000814
:1000A000FD0E0008FD0E0008FD0E0008FD0E000804
:1000B000FD0E0008FD0E0008FD0E0008FD0E0008F4
:1000C000FD0E0008FD0E0008FD0E0008FD0E0008E4
:1000D000FD0E0008FD0E0008FD0E0008FD0E0008D4
:1000E000550E0008FD0E0008FD0E0008FD0E00086C
:1000F000FD0E0008FD0E0008FD0E0008FD0E0008B4
:10010000FD0E0008FD0E0008FD0E0008FD0E0008A3
:10011000FD0E0008FD0E0008FD0E0008FD0E000893
:10012000FD0E0008FD0E0008FD0E0008FD0E000883
:10013000FD0E00080000000000000000FD0E000899
:10014000FD0E0008FD0E0008FD0E0008FD0E000863
:10015000FD0E0008FD0E0008FD0E0008FD0E000853
:10016000FD0E0008FD0E0008FD0E0008FD0E000843
:10017000FD0E0008FD0E0008FD0E00080000000046
:1001800000000000FD0E000800000000000000005C
:10019000FD0E00080000000000000000FD0E000839
:1001A000000000000000000000000000FD0E00083C
:1001B000FD0E0008FD0E0008FD0E0008FD0E0008F3
:0401C000FD0E000828
:1001C40010B5054C237833B9044B13B10448AFF38D
:1001D40000800123237010BD0400002000000000F3
:1001E4004C0F0008084B10B51BB108490848AFF381
:1001F40000800848036803B910BD074B002BFBD0EF
:10020400BDE81040184700BF0000000008000020AF
:100214004C0F00080400002000000000084B094AAD
:100224001B6810B5A2FB03230446980900F098F854
:10023400214600224FF0FF3000F04EF8002010BDA0
:1002440000000020D34D621008B50B4B1A6842F42D
:1002540000721A601A6842F480621A601A6842F4E2
:1002640080721A60032000F025F80020FFF7D6FF03
:1002740000F0B6FD002008BD003C0240024A1368AD
:1002840001331360704700BF20000020014B186841
:10029400704700BF2000002010B582B00190FFF726
:1002A400F5FF0446FFF7F2FF019B001B9842F9D3C8
:1002B40002B010BD074AD1684FF6FF030B4000029D
:1002C40043F0BF6300F4E06043F400330343D360BE
:1002D400704700BF00ED00E0194BDB68C3F3022355
:1002E40030B4C3F10705042D03F1040428BF042529
:1002F400062C18D9033B01249C40013C22400124D4
:10030400AC40013C214001FA03F3002842EA030215
:100314000CDB00F1604000F561401201D2B280F8BC
:10032400002330BC704700221346E8E7054B00F079
:100334000F0012010344D2B21A7630BC704700BFDA
:1003440000ED00E0FCEC00E000F01F010123400997
:10035400024A8B4042F82030704700BF00E100E0C1
:100364000138B0F1807F0ED2084B10B4084C5860AD
:10037400F02084F823000022072110469A601960B7
:100384005DF8044B70470120704700BF10E000E0A7
:1003940000ED00E0044A136804280CBF43F0040392
:1003A40023F004031360704710E000E0704700BFBF
:1003B40008B5FFF7FBFF08BD2DE9F04FDFF8D8C102
:1003C400D1F800E0DFF8D4816D4F83B0002603E05C
:1003D4000136102E00F08B800123B34033EA0E0265
:1003E400F6D1D1F8049029F01004022C00F0828098
:1003F4004FEA460A0322056802FA0AF2D24309F0D8
:10040400030B15400BFA0AFB013C4BEA0505012CD2
:10041400056040F29180C5688C682A4004FA0AF4A9
:10042400224319F0805FC260D2D000220192DCF82E
:10043400444044F48044CCF84440DCF8444026F082
:10044400030505F1804504F4804405F59C350194C9
:1004540006F0030B019CD5F808A04FEA8B0B0F2480
:1004640004FA0BF440452AEA040A1AD002F1804245
:1004740002F5013290426FD0424A904270D0424A13
:10048400904271D0414A904272D0414A904273D016
:10049400404A90420BBF0622072402FA0BF204FAE8
:1004A4000BF24AEA0202AA603A68DC4319F4803F7C
:1004B40014BF1A4322403A607A6819F4003F14BF0B
:1004C4001A4322407A60BA6819F4801F14BF1A4391
:1004D4002240BA60FA6819F4001F06F101060CBF45
:1004E40004EA02031343102EFB607FF475AF03B0DC
:1004F400BDE8F08F4FEAD60A00EB8A0A06F007043B
:10050400DAF820500A69A4004FF00F0B0BFA04FB31
:1005140025EA0B05A2402A43CAF820204FEA460ADE
:100524000322046802FA0AF2D24309F003051440D4
:1005340005FA0AF52C4304608468CD68144005FA72
:100544000AF5254385604468C9F3001524EA0304C9
:10055400B5402C4344605EE7012202FA0BF2A0E7A7
:10056400022202FA0BF29CE7032202FA0BF298E74A
:10057400042202FA0BF294E7052202FA0BF290E746
:10058400003C014000080240000C02400010024000
:1005940000140240001802400038024000000240EB
:1005A40002B9090481617047436959404161704748
:1005B400704700BF044A5169014200D1704708B531
:1005C4005061FFF7F5FF08BD003C014030B583B032
:1005D400234B002201921A6C42F080521A641B6C65
:1005E40003F080530193019B4FF4803393FAA3F3F8
:1005F400B3FA83F303F1845303F560339B000122C0
:100604001A60FFF743FE174C054605E0FFF73EFE70
:10061400401BB0F57A7F20D86368DA03F6D54FF42F
:10062400003393FAA3F3B3FA83F303F1845303F58A
:1006340060339B0001221A60FFF728FE094C05462F
:1006440005E0FFF723FE401BB0F57A7F05D8636809
:100654009B03F6D5002003B030BD032003B030BDAA
:100664000038024000700040564A136803F00F033C
:100674008B422DE9F04109D2CBB21370136803F019
:100684000F03994202D00120BDE8F08103689A0764
:1006940006D54D4D8268AC6824F0F0042243AA606C
:1006A400DF0706460C4626D54368012B00F08480FC
:1006B4009A1E012A444A126878D99107E3D5424D1B
:1006C400AA6822F003021343AB60FFF7DFFD7368EF
:1006D400012B074641F288384CD0022B55D0032B0E
:1006E40005D15DE0FFF7D2FDC01B404561D8AB6882
:1006F40013F00C0FF6D1334A136803F00F039C4236
:1007040006D2E3B21370136803F00F039C42BAD10C
:1007140033685A0706D52C48F268816821F4E05101
:100724000A4382601B0707D5274A3169936823F47B
:10073400604343EAC103936000F034FA224B01465C
:10074400F0229B6892FAA2F2B2FA82F203F0F0036A
:10075400D3401E481E4AC35C002021FA03F31360F1
:10076400FFF75CFD0020BDE8F081FFF78FFDC01BA3
:1007740040451ED8AB6803F00C03042BF5D1BAE74F
:10078400FFF784FDC01B404513D8AB6803F00C038E
:10079400082BF5D1AFE7FFF779FDC01B404508D81A
:1007A400AB6803F00C030C2BF5D1A4E7900186D4BD
:1007B40069E70320BDE8F081034A126895033FF519
:1007C4007EAF60E7003C024000380240640F00083E
:1007D40000000020014B1868704700BF0000002093
:1007E4002DE9F0410368DA0782B0044636D5AA49F8
:1007F4008A6802F00C02042A00F0A5808A6802F0DC
:100804000C02082A00F09B80A3498A6802F00C02BB
:100814000C2A00F026816368B3F5803F00F00A815A
:10082400B3F5A02F00F08B819B4D2A6822F480320F
:100834002A602A6822F480222A60002B40F0FF807C
:10084400FFF724FD064605E0FFF720FD801B642822
:1008540000F203812B689903F6D423689A0734D5F0
:100864008D4A916811F00C0F78D0916801F00C0159
:10087400082970D088498A6802F00C020C2A00F01A
:100884008281E368002B00F0F180844B824D0122C9
:100894001A60FFF7FBFC064605E0FFF7F7FC801B38
:1008A400022800F2DA802B687B4A9807F5D5116894
:1008B400F82393FAA3F32069B3FA83F321F0F80140
:1008C40000FA03F30B43136023681A0714D5636912
:1008D400002B4ED0724B704D01221A60FFF7D6FCEC
:1008E400064605E0FFF7D2FC801B022800F2B58023
:1008F4006B6F9F07F6D5236859074AD4A269D2B112
:10090400654B996801F00C0108292ED0022A654A2A
:100914004FF00001116000F0BA801C46FFF7B6FCEE
:10092400054605E0FFF7B2FC401B022800F2958063
:1009340023689B01F6D4002002B0BDE8F0814A6828
:1009440057027FF561AF544A1268950386D56268F1
:10095400002A83D109E0526857028BD44E4A1268A8
:10096400950755D5E268012A52D0012002B0BDE8AE
:10097400F0814B4A484D1360FFF788FC064604E0BB
:10098400FFF784FC801B022867D86B6F9807F7D4A5
:10099400B1E7414B444D002201921A6C42F080525F
:1009A4001A641B6C03F080530193019B2B6843F47E
:1009B40080732B60FFF76AFC064604E0FFF766FCD1
:1009C400801B022849D82B68DA05F7D5A368012BC8
:1009D40000F0DE80052B00F0BC802F4D2A6F22F042
:1009E40001022A672A6F22F004022A67002B40F0D2
:1009F400B980FFF74BFC41F28836074604E0FFF765
:100A040045FCC01BB04228D82B6F9807F7D475E774
:100A1400214DF822296892FAA2F22069B2FA82F2F0
:100A240021F0F80100FA02F20A432A601A077FF55E
:100A340063AF4CE7184A136843F480331360FFF73D
:100A440025FC154D064604E0FFF720FC801B6428B6
:100A540003D82B689803F7D5FFE6032002B0BDE85E
:100A6400F0814A6856027FF5D6AE6CE70B4A0A4D10
:100A74001360FFF70BFC064604E0FFF707FC801B3E
:100A84000228EAD82B689907F7D423681DE71D4686
:100A9400FFF7FCFB06460EE0003802400000474228
:100AA400800E47426000474200700040FFF7EEFBB3
:100AB400801B0228D1D82B68384A9901F6D447F60E
:100AC400C07393FAA3F34FF4403CB3FA83F89CFA4F
:100AD400ACF34FF0706EB3FA83FC9EFAAEFE4FF0A7
:100AE400E046BEFA8EFE96FAA6F6A36A606A256A06
:100AF400E76959082F4300FA08F3E56A206B0139C6
:100B040047EA030401FA0CF32343B6FA86F105FA23
:100B14000EF400FA01F1234321480B4301215360F1
:100B240001601446FFF7B2FB054604E0FFF7AEFB95
:100B3400401B022891D823689A01F7D5FBE6174B8E
:100B44001A6842F480221A601A6842F480321A60E9
:100B540075E7124B1A6F42F004021A671A6F42F0DB
:100B640001021A67FFF792FB0C4D074641F28836E3
:100B740005E0FFF78BFBC01BB0423FF66EAF2B6F57
:100B84009B07F6D5BAE64A6856023FF57AAEE5E623
:100B9400024A136F43F001031367E3E7003802408E
:100BA40060004742314A906800F00C00082808D0E1
:100BB4000C2831D02E4B2F4A04280CBF184610465F
:100BC40070475368516803F03F0311F4800F47F6F0
:100BD400C070516890FAA0F047F6C07202EA0102B0
:100BE400B0FA80F022FA00F014BF214A214AB2FB85
:100BF400F3F31E4A03FB00F352684FF4403090FABB
:100C0400A0F002F44032B0FA80F022FA00F0013091
:100C14004000B3FBF0F070475368516803F03F03A2
:100C240011F4800F47F6C070516890FAA0F047F6AF
:100C3400C07202EA0102B0FA80F022FA00F014BF96
:100C44000B4A0C4AB2FBF3F3084A03FB00F3526865
:100C54004FF0E04090FAA0F002F0E042B0FA80F0E9
:100C640022FA00F0B3FBF0F0704700BF00380240F6
:100C740000127A000024F40070B594B000222949CF
:100C84000092086C284B40F080500864096C01F015
:100C94008051009100990192196841F44041196012
:100CA4001B680E9203F44043022401930125102192
:100CB4000822B42307A8019E07940D94119412945A
:100CC40013940A950B910F921093FFF789FD00B1CD
:100CD400FEE7FFF77BFC034600B1FEE74FF48052CA
:100CE4000F264FF4A055052102A8039404930296FD
:100CF40005950692FFF7B8FC044600B1FEE7FFF73E
:100D040069FD0A4BA3FB00308009FFF729FB04208F
:100D1400FFF740FB224621464FF0FF30FFF7DCFA95
:100D240014B070BD0038024000700040D34D621012
:100D340000B589B00024FFF787FAFFF79DFF244B25
:100D440000941A6B234842F004021A631A6B02F0EF
:100D540004020092009A01941A6B42F080021A6312
:100D64001A6B02F080020192019A02941A6B42F00B
:100D740001021A631B6B03F0010302932246202134
:100D8400029BFFF70DFC4FF40052134B13480392E0
:100D940003A904930594FFF70FFB2022012303A961
:100DA4000C480392049305940694FFF705FB28204E
:100DB40022462146FFF790FA2820FFF7C5FA2021A2
:100DC4000448FFF7F1FB6420FFF766FAF7E700BF7A
:100DD40000380240000002400000211000080240D8
:100DE40008B50720FFF766FA002211466FF00B00E2
:100DF400FFF772FA002211466FF00A00FFF76CFA4F
:100E0400002211466FF00900FFF766FA002211462E
:100E14006FF00400FFF760FA002211466FF0030040
:100E2400FFF75AFA002211466FF00100FFF754FA57
:100E3400002211464FF0FF30BDE80840FFF74CBADE
:100E440008B5FFF71BFABDE80840FFF7B1BA00BFC9
:100E54004FF40050FFF7AEBB1049114BD1F8882076
:100E640042F4700210B4C1F888201A680D4C0020B6
:100E740042F001021A6098601A6822F0847222F427
:100E840080321A605C601A684FF0006422F4802299
:100E94001A60D8608C605DF8044B704700ED00E088
:100EA4000038024010300024DFF834D0002103E081
:100EB4000C4B5B58435004310B480C4B42189A427C
:100EC400F6D30B4A02E0002342F8043B094B9A4252
:100ED400F9D3FFF7C1FF00F011F8FFF729FF7047BE
:100EE400000002207C0F0008000000200400002005
:100EF4000400002024000020FEE7000070B50E4B23
:100F04000E4CE41AA41000251E46A54204D056F83F
:100F1400253098470135F8E700F016F8084C094BDE
:100F2400E41AA41000251E46A54204D056F8253024
:100F340098470135F8E770BD740F0008740F000876
:100F4400780F0008740F0008F8B500BFF8BC08BC9F
:100F54009E467047F8B500BFF8BC08BC9E46704773
:100F6400000000000102030401020304060708094B
:040F7400E901000887
:040F7800C5010008A7
:040F7C000024F40059
:0400000508000EAD34
:00000001FF
