:020000040800F2
:10000000000002203514000885140008851400083B
:1000100085140008851400088514000800000000FD
:10002000000000000000000000000000851400082F
:10003000851400080000000085140008CD13000896
:10004000851400088514000885140008851400082C
:10005000851400088514000885140008851400081C
:10006000851400088514000885140008851400080C
:1000700085140008851400088514000885140008FC
:1000800085140008851400088514000885140008EC
:1000900085140008851400088514000885140008DC
:1000A00085140008851400088514000885140008CC
:1000B00085140008851400088514000885140008BC
:1000C00085140008851400088514000885140008AC
:1000D000851400088514000885140008851400089C
:1000E000DD13000885140008851400088514000835
:1000F000851400088514000885140008851400087C
:10010000851400088514000885140008851400086B
:10011000851400088514000885140008851400085B
:10012000851400088514000885140008851400084B
:10013000851400080000000000000000851400087D
:10014000851400088514000885140008851400082B
:10015000851400088514000885140008851400081B
:10016000851400088514000885140008851400080B
:10017000851400088514000885140008000000009C
:1001800000000000851400080000000000000000CE
:10019000851400080000000000000000851400081D
:1001A00000000000000000000000000085140008AE
:1001B00085140008851400088514000885140008BB
:0401C000851400089A
:1001C40010B5054C237833B9044B13B10448AFF38D
:1001D40000800123237010BD0800002000000000EF
:1001E400D4140008084B10B51BB108490848AFF3F4
:1001F40000800848036803B910BD074B002BFBD0EF
:10020400BDE81040184700BF000000000C000020AB
:10021400D41400080800002000000000084B094A1C
:100224001B6810B5A2FB03230446980900F098F854
:10023400214600224FF0FF3000F04EF8002010BDA0
:1002440004000020D34D621008B50B4B1A6842F429
:1002540000721A601A6842F480621A601A6842F4E2
:1002640080721A60032000F025F80020FFF7D6FF03
:1002740001F048F8002008BD003C0240024A13681F
:1002840001331360704700BF24000020014B18683D
:10029400704700BF2400002010B582B00190FFF722
:1002A400F5FF0446FFF7F2FF019B001B9842F9D3C8
:1002B40002B010BD074AD1684FF6FF030B4000029D
:1002C40043F0BF6300F4E06043F400330343D360BE
:1002D400704700BF00ED00E0194BDB68C3F3022355
:1002E40030B4C3F10705042D03F1040428BF042529
:1002F400062C18D9033B01249C40013C22400124D4
:10030400AC40013C214001FA03F3002842EA030215
:100314000CDB00F1604000F561401201D2B280F8BC
:10032400002330BC704700221346E8E7054B00F079
:100334000F0012010344D2B21A7630BC704700BFDA
:1003440000ED00E0FCEC00E000F01F010123400997
:10035400024A8B4042F82030704700BF00E100E0C1
:100364000138B0F1807F0ED2084B10B4084C5860AD
:10037400F02084F823000022072110469A601960B7
:100384005DF8044B70470120704700BF10E000E0A7
:1003940000ED00E0044A136804280CBF43F0040392
:1003A40023F004031360704710E000E0704700BFBF
:1003B40008B5FFF7FBFF08BD2DE9F04FDFF8D8C102
:1003C400D1F800E0DFF8D4816D4F83B0002603E05C
:1003D4000136102E00F08B800123B34033EA0E0265
:1003E400F6D1D1F8049029F01004022C00F0828098
:1003F4004FEA460A0322056802FA0AF2D24309F0D8
:10040400030B15400BFA0AFB013C4BEA0505012CD2
:10041400056040F29180C5688C682A4004FA0AF4A9
:10042400224319F0805FC260D2D000220192DCF82E
:10043400444044F48044CCF84440DCF8444026F082
:10044400030505F1804504F4804405F59C350194C9
:1004540006F0030B019CD5F808A04FEA8B0B0F2480
:1004640004FA0BF440452AEA040A1AD002F1804245
:1004740002F5013290426FD0424A904270D0424A13
:10048400904271D0414A904272D0414A904273D016
:10049400404A90420BBF0622072402FA0BF204FAE8
:1004A4000BF24AEA0202AA603A68DC4319F4803F7C
:1004B40014BF1A4322403A607A6819F4003F14BF0B
:1004C4001A4322407A60BA6819F4801F14BF1A4391
:1004D4002240BA60FA6819F4001F06F101060CBF45
:1004E40004EA02031343102EFB607FF475AF03B0DC
:1004F400BDE8F08F4FEAD60A00EB8A0A06F007043B
:10050400DAF820500A69A4004FF00F0B0BFA04FB31
:1005140025EA0B05A2402A43CAF820204FEA460ADE
:100524000322046802FA0AF2D24309F003051440D4
:1005340005FA0AF52C4304608468CD68144005FA72
:100544000AF5254385604468C9F3001524EA0304C9
:10055400B5402C4344605EE7012202FA0BF2A0E7A7
:10056400022202FA0BF29CE7032202FA0BF298E74A
:10057400042202FA0BF294E7052202FA0BF290E746
:10058400003C014000080240000C02400010024000
:1005940000140240001802400038024000000240EB
:1005A40002B9090481617047436959404161704748
:1005B400704700BF044A5169014200D1704708B531
:1005C4005061FFF7F5FF08BD003C014030B583B032
:1005D400234B002201921A6C42F080521A641B6C65
:1005E40003F080530193019B4FF4803393FAA3F3F8
:1005F400B3FA83F303F1845303F560339B000122C0
:100604001A60FFF743FE174C054605E0FFF73EFE70
:10061400401BB0F57A7F20D86368DA03F6D54FF42F
:10062400003393FAA3F3B3FA83F303F1845303F58A
:1006340060339B0001221A60FFF728FE094C05462F
:1006440005E0FFF723FE401BB0F57A7F05D8636809
:100654009B03F6D5002003B030BD032003B030BDAA
:100664000038024000700040564A136803F00F033C
:100674008B422DE9F04109D2CBB21370136803F019
:100684000F03994202D00120BDE8F08103689A0764
:1006940006D54D4D8268AC6824F0F0042243AA606C
:1006A400DF0706460C4626D54368012B00F08480FC
:1006B4009A1E012A444A126878D99107E3D5424D1B
:1006C400AA6822F003021343AB60FFF7DFFD7368EF
:1006D400012B074641F288384CD0022B55D0032B0E
:1006E40005D15DE0FFF7D2FDC01B404561D8AB6882
:1006F40013F00C0FF6D1334A136803F00F039C4236
:1007040006D2E3B21370136803F00F039C42BAD10C
:1007140033685A0706D52C48F268816821F4E05101
:100724000A4382601B0707D5274A3169936823F47B
:10073400604343EAC103936000F034FA224B01465C
:10074400F0229B6892FAA2F2B2FA82F203F0F0036A
:10075400D3401E481E4AC35C002021FA03F31360F1
:10076400FFF75CFD0020BDE8F081FFF78FFDC01BA3
:1007740040451ED8AB6803F00C03042BF5D1BAE74F
:10078400FFF784FDC01B404513D8AB6803F00C038E
:10079400082BF5D1AFE7FFF779FDC01B404508D81A
:1007A400AB6803F00C030C2BF5D1A4E7900186D4BD
:1007B40069E70320BDE8F081034A126895033FF519
:1007C4007EAF60E7003C024000380240EC140008B1
:1007D40004000020014B1868704700BF040000208B
:1007E4002DE9F0410368DA0782B0044636D5AA49F8
:1007F4008A6802F00C02042A00F0A5808A6802F0DC
:100804000C02082A00F09B80A3498A6802F00C02BB
:100814000C2A00F026816368B3F5803F00F00A815A
:10082400B3F5A02F00F08B819B4D2A6822F480320F
:100834002A602A6822F480222A60002B40F0FF807C
:10084400FFF724FD064605E0FFF720FD801B642822
:1008540000F203812B689903F6D423689A0734D5F0
:100864008D4A916811F00C0F78D0916801F00C0159
:10087400082970D088498A6802F00C020C2A00F01A
:100884008281E368002B00F0F180844B824D0122C9
:100894001A60FFF7FBFC064605E0FFF7F7FC801B38
:1008A400022800F2DA802B687B4A9807F5D5116894
:1008B400F82393FAA3F32069B3FA83F321F0F80140
:1008C40000FA03F30B43136023681A0714D5636912
:1008D400002B4ED0724B704D01221A60FFF7D6FCEC
:1008E400064605E0FFF7D2FC801B022800F2B58023
:1008F4006B6F9F07F6D5236859074AD4A269D2B112
:10090400654B996801F00C0108292ED0022A654A2A
:100914004FF00001116000F0BA801C46FFF7B6FCEE
:10092400054605E0FFF7B2FC401B022800F2958063
:1009340023689B01F6D4002002B0BDE8F0814A6828
:1009440057027FF561AF544A1268950386D56268F1
:10095400002A83D109E0526857028BD44E4A1268A8
:10096400950755D5E268012A52D0012002B0BDE8AE
:10097400F0814B4A484D1360FFF788FC064604E0BB
:10098400FFF784FC801B022867D86B6F9807F7D4A5
:10099400B1E7414B444D002201921A6C42F080525F
:1009A4001A641B6C03F080530193019B2B6843F47E
:1009B40080732B60FFF76AFC064604E0FFF766FCD1
:1009C400801B022849D82B68DA05F7D5A368012BC8
:1009D40000F0DE80052B00F0BC802F4D2A6F22F042
:1009E40001022A672A6F22F004022A67002B40F0D2
:1009F400B980FFF74BFC41F28836074604E0FFF765
:100A040045FCC01BB04228D82B6F9807F7D475E774
:100A1400214DF822296892FAA2F22069B2FA82F2F0
:100A240021F0F80100FA02F20A432A601A077FF55E
:100A340063AF4CE7184A136843F480331360FFF73D
:100A440025FC154D064604E0FFF720FC801B6428B6
:100A540003D82B689803F7D5FFE6032002B0BDE85E
:100A6400F0814A6856027FF5D6AE6CE70B4A0A4D10
:100A74001360FFF70BFC064604E0FFF707FC801B3E
:100A84000228EAD82B689907F7D423681DE71D4686
:100A9400FFF7FCFB06460EE0003802400000474228
:100AA400800E47426000474200700040FFF7EEFBB3
:100AB400801B0228D1D82B68384A9901F6D447F60E
:100AC400C07393FAA3F34FF4403CB3FA83F89CFA4F
:100AD400ACF34FF0706EB3FA83FC9EFAAEFE4FF0A7
:100AE400E046BEFA8EFE96FAA6F6A36A606A256A06
:100AF400E76959082F4300FA08F3E56A206B0139C6
:100B040047EA030401FA0CF32343B6FA86F105FA23
:100B14000EF400FA01F1234321480B4301215360F1
:100B240001601446FFF7B2FB054604E0FFF7AEFB95
:100B3400401B022891D823689A01F7D5FBE6174B8E
:100B44001A6842F480221A601A6842F480321A60E9
:100B540075E7124B1A6F42F004021A671A6F42F0DB
:100B640001021A67FFF792FB0C4D074641F28836E3
:100B740005E0FFF78BFBC01BB0423FF66EAF2B6F57
:100B84009B07F6D5BAE64A6856023FF57AAEE5E623
:100B9400024A136F43F001031367E3E7003802408E
:100BA40060004742314A906800F00C00082808D0E1
:100BB4000C2831D02E4B2F4A04280CBF184610465F
:100BC40070475368516803F03F0311F4800F47F6F0
:100BD400C070516890FAA0F047F6C07202EA0102B0
:100BE400B0FA80F022FA00F014BF214A214AB2FB85
:100BF400F3F31E4A03FB00F352684FF4403090FABB
:100C0400A0F002F44032B0FA80F022FA00F0013091
:100C14004000B3FBF0F070475368516803F03F03A2
:100C240011F4800F47F6C070516890FAA0F047F6AF
:100C3400C07202EA0102B0FA80F022FA00F014BF96
:100C44000B4A0C4AB2FBF3F3084A03FB00F3526865
:100C54004FF0E04090FAA0F002F0E042B0FA80F0E9
:100C640022FA00F0B3FBF0F0704700BF00380240F6
:100C740000127A000024F400F0B5046A8F680E684C
:100C8400144D24F001040462036A4468826923F069
:100C9400020322F07302A84243EA070342EA06026F
:100CA40009D005F58065A84205D049684460826191
:100CB40041630362F0BDCF684E698D6923F0080378
:100CC40024F4407E3B4346EA050423F0040344EA4B
:100CD4000E04EAE700000140026A22F48072F0B4D4
:100CE4008E680F680262036A134D4268C46923F474
:100CF400007324F07304A84243EA062347EA040776
:100D040009D00E4CA04206D049684260C761C16355
:100D1400F0BC03627047CE684D698C6923F40063AC
:100D240022F4405243EA062342EA051223F4806384
:100D340042EA0412E8E700BF000001400004014059
:100D4400F0B4046A8F680E68104D24F48054046271
:100D5400026A4468C36922F4005223F4E643A842B9
:100D640042EA073243EA06230AD005F58065A84221
:100D740006D049684460C361F0BC016402627047F4
:100D84004D6924F4804444EA8514F2E700000140EC
:100D940003680122186A02FA01F120EA010010B482
:100DA40018621A6A0A4C1143A34219620AD0094A0A
:100DB400934207D01A685DF8044B42F00102002008
:100DC4001A6070475A6C42F400425A64F2E700BF5A
:100DD4000000014000040140364A0368904270B4A8
:100DE40054D0B0F1804F30D0A2F57C4290422CD048
:100DF40002F58062904228D002F58062904224D0AD
:100E040002F57842904220D002F57052904230D0E0
:100E140002F5806290422CD002F58062904228D084
:100E2400A2F59832904224D002F58062904220D0FC
:100E340002F5806290421CD08C680A68036001232A
:100E4400C462826270BC436170474A681A4C8E68FF
:100E54000D6823F070031343CA6823F440731343EB
:100E6400A0420360C66285621DD00123436170BC49
:100E74007047CA688C68096823F44073134303609D
:100E84000123C462816270BC436170474A68CC68C4
:100E94008E680D6823F070031A4322F440722243D3
:100EA4000260C66285620B6903630123436170BCFF
:100EB400704700BF0000014000040140B8B190F841
:100EC400393010B503F0FF0204465BB1022384F805
:100ED40039302068211DFFF77FFF012384F8393062
:100EE400002010BD80F8382000F03CFAEEE7012025
:100EF400704700BFF0B5046AD1F808E00E68154DDC
:100F040024F010040462036A4768826923F0200312
:100F140022F4E642A84243EA0E1342EA062208D02B
:100F24000D4CA04205D04968476082618163036229
:100F3400F0BDCE684D698C6927F4406723F08003C7
:100F440043EA061347EA850523F0400345EA84078C
:100F5400E9E700BF000001400004014038B590F803
:100F64003830012B2BD00D4602230121044680F892
:100F7400381080F839300C2A1AD8DFE802F0351915
:100F8400191907191919471919192200294600684E
:100F9400FFF7B0FF23682869996941F400619961FA
:100FA400996921F4806199619A6942EA00229A61FF
:100FB4000123002084F8393084F8380038BD022039
:100FC40038BD29460068FFF7BBFE23682869D96944
:100FD40041F40061D961D96921F48061D961DA6988
:100FE40042EA0022DA61E3E729460068FFF744FE9B
:100FF40023682A69996941F008019961996921F086
:101004000401996199690A439A61D1E72946006804
:10101400FFF762FE23682A69D96941F00801D961A2
:10102400D96921F00401D961D9690A43DA61BFE7BA
:1010340090F83830012B1DD002460220136830B4DA
:1010440082F839005C6824F0700403C95C605C6851
:1010540020435860986820F08000986098680024C5
:10106400012501439960204682F8395082F83840BE
:1010740030BC70470220704770B594B000222949F3
:101084000092086C284B40F080500864096C01F011
:101094008051009100990192196841F4404119600E
:1010A4001B680E9203F4404302240193012510218E
:1010B4000822B42307A8019E07940D941194129456
:1010C40013940A950B910F921093FFF789FB00B1CB
:1010D400FEE7FFF77BFA034600B1FEE74FF48052C8
:1010E4000F264FF4A055052102A8039404930296F9
:1010F40005950692FFF7B8FA044600B1FEE7FFF73C
:1011040069FB0A4BA3FB00308009FFF729F904208F
:10111400FFF740F9224621464FF0FF30FFF7DCF895
:1011240014B070BD0038024000700040D34D62100E
:1011340080B58EB00025FFF787F8FFF79DFF684B59
:1011440001951A6B6748684C42F004021A631A6BE3
:1011540002F004020192019A02951A6B42F0800295
:101164001A631A6B02F080020292029A03951A6BB8
:1011740042F001021A631A6B02F001020392039A0D
:1011840004951A6B42F002021A631B6B03F002030C
:1011940004932A462021049BFFF702FA2A464FF4BF
:1011A40040715248FFF7FCF94FF40052504B4F483E
:1011B400079207A9089301260995FFF7FDF8202354
:1011C40007A94848079309950A950896FFF7F4F884
:1011D4004FF4407307A945480793089609950A9563
:1011E400FFF7EAF82A4629462820FFF775F8282051
:1011F400FFF7AAF83F49A560B4226423204625617D
:1012040084E80600E360FFF759FE00B1FEE70346F9
:1012140005A9204605930693FFF70AFF034600B18C
:10122400FEE702466026322507A9204609930B9360
:1012340007960895FFF792FE00B1FEE7042207A97E
:101244002046FFF78BFE00B1FEE7082207A92046DF
:10125400FFF784FE00B1FEE707A90C222046FFF742
:101264007DFE054600B1FEE7204600F093F82946CE
:101274002046FFF78DFD04212046FFF789FD082154
:101284002046FFF785FD0C212046FFF781FD1A4F0C
:101294001A4D1B4E13482021FFF786F901224FF403
:1012A40080711248FFF77CF901224FF400710F4856
:1012B400FFF776F923685A6B92B2632A02F10A03A4
:1012C4003A80326812689BB288BF0A2353634FF492
:1012D4007A709363D36313642B80FEF7DDFFD9E741
:1012E40000380240000002402C00002000080240A8
:1012F40000002110000800406800002028000020A1
:101304000000002008B50720FEF7D4FF0022114694
:101314006FF00B00FEF7E0FF002211466FF00A00A9
:10132400FEF7DAFF002211466FF00900FEF7D4FF42
:10133400002211466FF00400FEF7CEFF0022114692
:101344006FF00300FEF7C8FF002211466FF00100A2
:10135400FEF7C2FF002211464FF0FF30BDE80840FF
:10136400FEF7BABF02680A4B9A4200D0704782B0B7
:1013740003F50C33002201921A6C42F004021A6441
:101384001B6C03F004030193019B02B0704700BF80
:101394000008004002680A4B9A4200D0704710B51A
:1013A40086B0022200234FF4707401A90548019409
:1013B4000292059203930493FEF7FEFF06B010BD5C
:1013C400000800400004024008B5FEF757FFBDE8DE
:1013D4000840FEF7EDBF00BF4FF40050FFF7EAB836
:1013E4001049114BD1F8882042F4700210B4C1F8AE
:1013F40088201A680D4C002042F001021A6098609F
:101404001A6822F0847222F480321A605C601A68CE
:101414004FF0006422F480221A60D8608C605DF87A
:10142400044B704700ED00E0003802401030002407
:10143400DFF834D0002103E00C4B5B5843500431F7
:101444000B480C4B42189A42F6D30B4A02E0002395
:1014540042F8043B094B9A42F9D3FFF7C1FF00F06D
:1014640011F8FFF765FE704700000220041500081C
:101474000000002008000020080000206C0000206C
:10148400FEE7000070B50E4B0E4CE41AA4100025C4
:101494001E46A54204D056F8253098470135F8E792
:1014A40000F016F8084C094BE41AA41000251E4657
:1014B400A54204D056F8253098470135F8E770BDA9
:1014C400FC140008FC14000800150008FC140008B3
:1014D400F8B500BFF8BC08BC9E467047F8B500BF1D
:0814E400F8BC08BC9E467047ED
:1014EC0000000000010203040102030406070809BE
:0414FC00E9010008FA
:04150000C501000819
:081504002C0000200024F4007B
:0400000508001435A6
:00000001FF
