:020000040800F2
:1000000000000220ED1D00083D1E00083D1E0008F6
:100010003D1E00083D1E00083D1E000800000000B7
:100020000000000000000000000000003D1E00086D
:100030003D1E0008000000003D1E0008811D000854
:100040003D1E00083D1E00083D1E00083D1E000824
:100050003D1E0008911D00083D1E00083D1E0008C1
:100060003D1E00083D1E00083D1E00083D1E000804
:100070003D1E00083D1E00083D1E00083D1E0008F4
:100080003D1E00083D1E00083D1E00083D1E0008E4
:100090003D1E00083D1E00083D1E00083D1E0008D4
:1000A0003D1E00083D1E00083D1E00083D1E0008C4
:1000B0003D1E00083D1E00083D1E00083D1E0008B4
:1000C0003D1E00083D1E00083D1E00083D1E0008A4
:1000D0003D1E00083D1E00083D1E00083D1E000894
:1000E000951D00083D1E00083D1E00083D1E00082D
:1000F0003D1E00083D1E00083D1E00083D1E000874
:100100003D1E00083D1E00083D1E00083D1E000863
:100110003D1E00083D1E00083D1E00083D1E000853
:100120003D1E00083D1E00083D1E00083D1E000843
:100130003D1E000800000000000000003D1E0008F9
:100140003D1E00083D1E00083D1E00083D1E000823
:100150003D1E00083D1E00083D1E00083D1E000813
:100160003D1E00083D1E00083D1E00083D1E000803
:100170003D1E00083D1E00083D1E00080000000056
:10018000000000003D1E000800000000000000000C
:100190003D1E000800000000000000003D1E000899
:1001A0000000000000000000000000003D1E0008EC
:1001B0003D1E00083D1E00083D1E00083D1E0008B3
:0401C0003D1E0008D8
:1001D00010B5054C237833B9044B13B10448AFF381
:1001E00000800123237010BD6C000020000000007F
:1001F0001C2D0008084B10B51BB108490848AFF387
:1002000000800848036803B910BD074B002BFBD0E2
:10021000BDE81040184700BF00000000700000203B
:100220001C2D00086C0000200000000000000000F1
:1002300001F0FF01102A2BDB10F0070F08D010F897
:10024000013B013A8B422DD010F0070F42B3F6D19B
:10025000F0B441EA012141EA014122F007047FF0B4
:1002600000070023F0E80256083C85EA010586EA0B
:10027000010685FA47F5A3FA87F586FA47F6A5FA47
:1002800087F68EB9EED1F0BC01F0FF0102F0070253
:1002900032B110F8013B013A83EA010313B1F8D1FE
:1002A0000020704701387047002D06BF35460338DF
:1002B000073815F0010F07D1013015F4807F02BF18
:1002C000013015F4C03F0130F0BC0138704700BF69
:1002D000084B094A1B6810B5A2FB03230446980982
:1002E00000F0B8FA214600224FF0FF3000F06EFA1D
:1002F000002010BD04000020D34D621008B50B4B48
:100300001A6842F400721A601A6842F480621A6035
:100310001A6842F480721A60032000F045FA002047
:10032000FFF7D6FF01F076FC002008BD003C02403C
:10033000024A136801331360704700BF9400002025
:10034000014B1868704700BF9400002010B582B0C0
:100350000190FFF7F5FF0446FFF7F2FF019B001B3A
:100360009842F9D302B010BD002800F0A980F8B57A
:10037000036C04463BB1236CDB060CD50023012043
:1003800084F83C30F8BD436480F83C3001F07AFCDE
:10039000236CDB06F2D4226C4A4923684A4D22F4CE
:1003A000885222F0020242F0020222644A6822F4D9
:1003B00040324A604868626802434A605F68A66AE1
:1003C00004F1080191E8064027F480775F605868DF
:1003D00040EA0E205860586820F040705860586815
:1003E00001435960996821F4006199609968AE42AF
:1003F00042EA01029A6046D09968E26A21F070618F
:10040000996099680E439E60996821F04051996007
:1004100099680A439A609968A569206A21F00201E7
:1004200099609A6842EA45029A605A68002833D176
:1004300022F400625A60DA6AE069276B666922F486
:100440007002DA62DD6A013845EA0050D8629868C5
:1004500020F400709860996841EA47219960996892
:1004600021F4806199609A68002042EA86229A60AD
:100470006064236C23F0030343F00103236400232F
:1004800084F83C30F8BD9A6822F070629A609A68ED
:1004900022F040529A60BEE742F400625A605A6805
:1004A00022F460425A604FF4604191FAA1F1626A0D
:1004B0005868B1FA81F1013A8A4002435A60BAE7BA
:1004C00001207047002301400100000F10B490F894
:1004D0003C3083B00022012B019255D00268936812
:1004E0000121DB0780F83C1014D42C4B2C4C1B68EA
:1004F0009168A4FB03439B0C03EB430341F0010110
:1005000091600193019B2BB1019B013B0193019BE6
:10051000002BF9D19368DC0731D5036C23F4E06339
:1005200023F0010343F4807303645368590505D530
:10053000036C23F4405343F480530364036C13F4BB
:1005400080531CBF436C23F00603436400246FF008
:100550002201144B80F83C4011605B68DB060BD134
:10056000906810F040500AD1936843F08043936044
:1005700003B05DF8044B70470B4B9A4209D0002042
:1005800003B05DF8044B7047022003B05DF8044BE4
:100590007047936813F04050E6D0F0E70400002065
:1005A00083DE1B43002301400020014003689A685A
:1005B00070B5550502D59B68DC053DD40C46054653
:1005C000FFF7BEFE06462A6801E0601C25D11368CD
:1005D0009907FAD56FF0120313602B6C43F4007384
:1005E0002B64936813F0405F15D1AB699BB9D36A54
:1005F00013F4700F0CD12B6C23F480732B642B6CD1
:1006000013F4805007D12B6C43F001032B6470BDB1
:1006100093685B05EFD5002070BD24B1FFF790FE15
:10062000801B8442CFD22B6C002243F004032B6446
:1006300085F83C20032070BD036C002243F02003AA
:10064000036480F83C20012070BD00BF0368D86CB3
:10065000704700BFF0B590F83C3083B00022012B0A
:10066000019258D00E680123092E374680F83C309D
:1006700029D805688B682C6906EB460E072202FA1A
:100680000EF224EA02022A612A6903FA0EF31343E6
:100690002B614B68062B2CD803EB8303696B053B5E
:1006A0001F229A4021EA02026A636A6B07FA03F387
:1006B00013436B63374B9D423FD0002380F83C309F
:1006C000184603B0F0BD05688C68EA68B7B207EB5E
:1006D00047031E3B4FF0070E0EFA03FE22EA0E02FE
:1006E000EA60EA6804FA03F31343EB604B68062BF5
:1006F000D2D90C2B12D803EB83042A6BA4F123016B
:100700001F238B4022EA03032B632B6B07FA01F1B3
:1007100019432963CEE7022003B0F0BD03EB830247
:10072000E96A413A1F23934021EA0303EB62E96A35
:1007300007FA02F30B43EB62BCE7122E23D0164BF1
:100740009E4207D0112EB8D1144A536843F40003D7
:100750005360B2E71149124B4A68124C42F400024E
:100760004A601B68A4FB03239B0C03EB83035B0021
:100770000193019B002BA0D0019B013B0193019BA6
:10078000002BF9D199E7054A536843F4800353607D
:1007900093E700BF00200140120000100023014039
:1007A0000400002083DE1B43074AD1684FF6FF0395
:1007B0000B40000243F0BF6300F4E06043F40033F9
:1007C0000343D360704700BF00ED00E0194BDB68C6
:1007D000C3F3022330B4C3F10705042D03F104046D
:1007E00028BF0425062C18D9033B01249C40013C5A
:1007F00022400124AC40013C214001FA03F30028CF
:1008000042EA03020CDB00F1604000F56140120196
:10081000D2B280F8002330BC704700221346E8E7CC
:10082000054B00F00F0012010344D2B21A7630BC1F
:10083000704700BF00ED00E0FCEC00E000F01F019D
:1008400001234009024A8B4042F82030704700BF24
:1008500000E100E00138B0F1807F0ED2084B10B407
:10086000084C5860F02084F823000022072110462D
:100870009A6019605DF8044B70470120704700BF13
:1008800010E000E000ED00E0044A136804280CBF0B
:1008900043F0040323F004031360704710E000E00A
:1008A000704700BF08B5FFF7FBFF08BD2DE9F04F0B
:1008B000DFF8D8C1D1F800E0DFF8D4816D4F83B004
:1008C000002603E00136102E00F08B800123B34098
:1008D00033EA0E02F6D1D1F8049029F01004022C6C
:1008E00000F082804FEA460A0322056802FA0AF203
:1008F000D24309F0030B15400BFA0AFB013C4BEA0B
:100900000505012C056040F29180C5688C682A407D
:1009100004FA0AF4224319F0805FC260D2D00022A8
:100920000192DCF8444044F48044CCF84440DCF8C4
:10093000444026F0030505F1804504F4804405F5A4
:100940009C35019406F0030B019CD5F808A04FEAF2
:100950008B0B0F2404FA0BF440452AEA040A1AD040
:1009600002F1804202F5013290426FD0424A904239
:1009700070D0424A904271D0414A904272D0414A6E
:10098000904273D0404A90420BBF0622072402FADD
:100990000BF204FA0BF24AEA0202AA603A68DC435C
:1009A00019F4803F14BF1A4322403A607A6819F460
:1009B000003F14BF1A4322407A60BA6819F4801FBE
:1009C00014BF1A432240BA60FA6819F4001F06F1F6
:1009D00001060CBF04EA02031343102EFB607FF4F0
:1009E00075AF03B0BDE8F08F4FEAD60A00EB8A0A74
:1009F00006F00704DAF820500A69A4004FF00F0B44
:100A00000BFA04FB25EA0B05A2402A43CAF8202072
:100A10004FEA460A0322046802FA0AF2D24309F0B6
:100A20000305144005FA0AF52C4304608468CD6878
:100A3000144005FA0AF5254385604468C9F300159A
:100A400024EA0304B5402C4344605EE7012202FA25
:100A50000BF2A0E7022202FA0BF29CE7032202FA51
:100A60000BF298E7042202FA0BF294E7052202FA4D
:100A70000BF290E7003C014000080240000C0240ED
:100A800000100240001402400018024000380240EA
:100A90000000024002B9090481617047436959406E
:100AA00041617047704700BF044A5169014200D15B
:100AB000704708B55061FFF7F5FF08BD003C0140E5
:100AC00030B583B0234B002201921A6C42F0805261
:100AD0001A641B6C03F080530193019B4FF4803325
:100AE00093FAA3F3B3FA83F303F1845303F560336A
:100AF0009B0001221A60FFF723FC174C054605E016
:100B0000FFF71EFC401BB0F57A7F20D86368DA033C
:100B1000F6D54FF4003393FAA3F3B3FA83F303F15A
:100B2000845303F560339B0001221A60FFF708FC31
:100B3000094C054605E0FFF703FC401BB0F57A7F42
:100B400005D863689B03F6D5002003B030BD0320B1
:100B500003B030BD0038024000700040564A1368B0
:100B600003F00F038B422DE9F04109D2CBB2137091
:100B7000136803F00F03994202D00120BDE8F08111
:100B800003689A0706D54D4D8268AC6824F0F004DE
:100B90002243AA60DF0706460C4626D54368012B90
:100BA00000F084809A1E012A444A126878D991077D
:100BB000E3D5424DAA6822F003021343AB60FFF76E
:100BC000BFFB7368012B074641F288384CD0022BDB
:100BD00055D0032B05D15DE0FFF7B2FBC01B4045AC
:100BE00061D8AB6813F00C0FF6D1334A136803F0E9
:100BF0000F039C4206D2E3B21370136803F00F0395
:100C00009C42BAD133685A0706D52C48F2688168ED
:100C100021F4E0510A4382601B0707D5274A316956
:100C2000936823F4604343EAC103936000F064FADD
:100C3000224B0146F0229B6892FAA2F2B2FA82F2AB
:100C400003F0F003D3401E481E4AC35C002021FA83
:100C500003F31360FFF73CFB0020BDE8F081FFF7D2
:100C60006FFBC01B40451ED8AB6803F00C03042B80
:100C7000F5D1BAE7FFF764FBC01B404513D8AB685A
:100C800003F00C03082BF5D1AFE7FFF759FBC01BAE
:100C9000404508D8AB6803F00C030C2BF5D1A4E752
:100CA000900186D469E70320BDE8F081034A126809
:100CB00095033FF57EAF60E7003C024000380240FC
:100CC000342D000804000020014B1868704700BF55
:100CD00004000020084B4FF4E0529B6892FAA2F205
:100CE000B2FA82F203F4E053D3400449044ACB5CE5
:100CF0001068D840704700BF00380240342D00080B
:100D000004000020084B4FF460429B6892FAA2F264
:100D1000B2FA82F203F46043D3400449044ACB5C44
:100D20001068D840704700BF00380240342D0008DA
:100D3000040000202DE9F0410368DA0782B0044680
:100D400036D5AA498A6802F00C02042A00F0A58070
:100D50008A6802F00C02082A00F09B80A3498A6886
:100D600002F00C020C2A00F026816368B3F5803F84
:100D700000F00A81B3F5A02F00F08B819B4D2A680B
:100D800022F480322A602A6822F480222A60002B12
:100D900040F0FF80FFF7D4FA064605E0FFF7D0FAEF
:100DA000801B642800F203812B689903F6D4236822
:100DB0009A0734D58D4A916811F00C0F78D091685C
:100DC00001F00C01082970D088498A6802F00C02F1
:100DD0000C2A00F08281E368002B00F0F180844B44
:100DE000824D01221A60FFF7ABFA064605E0FFF7D5
:100DF000A7FA801B022800F2DA802B687B4A98074A
:100E0000F5D51168F82393FAA3F32069B3FA83F3B5
:100E100021F0F80100FA03F30B43136023681A076B
:100E200014D56369002B4ED0724B704D01221A60AD
:100E3000FFF786FA064605E0FFF782FA801B0228D4
:100E400000F2B5806B6F9F07F6D5236859074AD427
:100E5000A269D2B1654B996801F00C0108292ED026
:100E6000022A654A4FF00001116000F0BA801C466A
:100E7000FFF766FA054605E0FFF762FA401B022815
:100E800000F2958023689B01F6D4002002B0BDE8F3
:100E9000F0814A6857027FF561AF544A12689503A2
:100EA00086D56268002A83D109E0526857028BD444
:100EB0004E4A1268950755D5E268012A52D00120A2
:100EC00002B0BDE8F0814B4A484D1360FFF738FA95
:100ED000064604E0FFF734FA801B022867D86B6FE0
:100EE0009807F7D4B1E7414B444D002201921A6CA8
:100EF00042F080521A641B6C03F080530193019BF3
:100F00002B6843F480732B60FFF71AFA064604E05F
:100F1000FFF716FA801B022849D82B68DA05F7D5A7
:100F2000A368012B00F0DE80052B00F0BC802F4D64
:100F30002A6F22F001022A672A6F22F004022A6730
:100F4000002B40F0B980FFF7FBF941F288360746E5
:100F500004E0FFF7F5F9C01BB04228D82B6F9807C3
:100F6000F7D475E7214DF822296892FAA2F2206998
:100F7000B2FA82F221F0F80100FA02F20A432A6082
:100F80001A077FF563AF4CE7184A136843F48033C0
:100F90001360FFF7D5F9154D064604E0FFF7D0F9C9
:100FA000801B642803D82B689803F7D5FFE603203D
:100FB00002B0BDE8F0814A6856027FF5D6AE6CE714
:100FC0000B4A0A4D1360FFF7BBF9064604E0FFF732
:100FD000B7F9801B0228EAD82B689907F7D4236851
:100FE0001DE71D46FFF7ACF906460EE0003802404B
:100FF00000004742800E47426000474200700040B8
:10100000FFF79EF9801B0228D1D82B68384A990136
:10101000F6D447F6C07393FAA3F34FF4403CB3FA07
:1010200083F89CFAACF34FF0706EB3FA83FC9EFA2F
:10103000AEFE4FF0E046BEFA8EFE96FAA6F6A36A22
:10104000606A256AE76959082F4300FA08F3E56AE0
:10105000206B013947EA030401FA0CF32343B6FA83
:1010600086F105FA0EF400FA01F1234321480B43FF
:101070000121536001601446FFF762F9054604E060
:10108000FFF75EF9401B022891D823689A01F7D533
:10109000FBE6174B1A6842F480221A601A6842F481
:1010A00080321A6075E7124B1A6F42F004021A6719
:1010B0001A6F42F001021A67FFF742F90C4D07461A
:1010C00041F2883605E0FFF73BF9C01BB0423FF61E
:1010D0006EAF2B6F9B07F6D5BAE64A6856023FF50E
:1010E0007AAEE5E6024A136F43F001031367E3E7C4
:1010F0000038024060004742314A906800F00C001E
:10110000082808D00C2831D02E4B2F4A04280CBFB9
:101110001846104670475368516803F03F0311F4B6
:10112000800F47F6C070516890FAA0F047F6C07281
:1011300002EA0102B0FA80F022FA00F014BF214A5C
:10114000214AB2FBF3F31E4A03FB00F352684FF44B
:10115000403090FAA0F002F44032B0FA80F022FA67
:1011600000F001304000B3FBF0F070475368516865
:1011700003F03F0311F4800F47F6C070516890FAF6
:10118000A0F047F6C07202EA0102B0FA80F022FA3B
:1011900000F014BF0B4A0C4AB2FBF3F3084A03FBFE
:1011A00000F352684FF0E04090FAA0F002F0E04205
:1011B000B0FA80F022FA00F0B3FBF0F0704700BF05
:1011C0000038024000127A000024F400F0B5046AEE
:1011D0008F680E68144D24F001040462036A4468A9
:1011E000826923F0020322F07302A84243EA070354
:1011F00042EA060209D005F58065A84205D0496893
:101200004460826141630362F0BDCF684E698D69BD
:1012100023F0080324F4407E3B4346EA050423F010
:10122000040344EA0E04EAE700000140026A22F4E3
:101230008072F0B48E680F680262036A134D4268D0
:10124000C46923F4007324F07304A84243EA06231C
:1012500047EA040709D00E4CA04206D04968426014
:10126000C761C163F0BC03627047CE684D698C6989
:1012700023F4006322F4405243EA062342EA0512B3
:1012800023F4806342EA0412E8E700BF0000014053
:1012900000040140F0B4046A8F680E68104D24F415
:1012A00080540462026A4468C36922F4005223F441
:1012B000E643A84242EA073243EA06230AD005F58C
:1012C0008065A84206D049684460C361F0BC0164EF
:1012D000026270474D6924F4804444EA8514F2E7C1
:1012E0000000014003680122186A02FA01F120EAB5
:1012F000010010B418621A6A0A4C1143A342196221
:101300000AD0094A934207D01A685DF8044B42F0AC
:10131000010200201A6070475A6C42F400425A647D
:10132000F2E700BF0000014000040140364A0368B4
:10133000904270B454D0B0F1804F30D0A2F57C42CE
:1013400090422CD002F58062904228D002F5806253
:10135000904224D002F57842904220D002F570529B
:10136000904230D002F5806290422CD002F580622B
:10137000904228D0A2F59832904224D002F58062A3
:10138000904220D002F5806290421CD08C680A689E
:1013900003600123C462826270BC436170474A6883
:1013A0001A4C8E680D6823F070031343CA6823F447
:1013B00040731343A0420360C66285621DD00123BF
:1013C000436170BC7047CA688C68096823F4407335
:1013D000134303600123C462816270BC43617047A0
:1013E0004A68CC688E680D6823F070031A4322F4B3
:1013F000407222430260C66285620B690363012367
:10140000436170BC704700BF000001400004014010
:10141000B8B190F8393010B503F0FF0204465BB163
:10142000022384F839302068211DFFF77FFF012354
:1014300084F83930002010BD80F8382000F046FCD8
:10144000EEE70120704700BFF0B5046AD1F808E06C
:101450000E68154D24F010040462036A476882691F
:1014600023F0200322F4E642A84243EA0E1342EAA4
:10147000062208D00D4CA04205D049684760826121
:1014800081630362F0BDCE684D698C6927F44067C3
:1014900023F0800343EA061347EA850523F040035F
:1014A00045EA8407E9E700BF00000140000401406D
:1014B00038B590F83830012B2BD00D46022301218E
:1014C000044680F8381080F839300C2A1AD8DFE842
:1014D00002F0351919190719191947191919220094
:1014E00029460068FFF7B0FF23682869996941F42D
:1014F00000619961996921F4806199619A6942EA70
:1015000000229A610123002084F8393084F83800E1
:1015100038BD022038BD29460068FFF7BBFE2368AE
:101520002869D96941F40061D961D96921F48061E0
:10153000D961DA6942EA0022DA61E3E72946006804
:10154000FFF744FE23682A69996941F0080199610F
:10155000996921F00401996199690A439A61D1E777
:1015600029460068FFF762FE23682A69D96941F0BD
:101570000801D961D96921F00401D961D9690A4307
:10158000DA61BFE790F83830012B1DD00246022007
:10159000136830B482F839005C6824F0700403C921
:1015A0005C605C6820435860986820F08000986018
:1015B00098680024012501439960204682F839503B
:1015C00082F8384030BC7047022070472DE9F04760
:1015D000066837690546C068EC69D5F808E02A69ED
:1015E000696927F4405738433061F368A8694EEAC7
:1015F000020223F416430A4323F00C03224313434D
:10160000F360736923F440730343B4F5004F7361CF
:10161000A34B5DD09E4200F0F68003F580639E42AE
:1016200000F0F180FFF756FB6F68DFF8788200EB7F
:10163000800000EB8000BF00B0FBF7F7FFF74AFB2C
:101640006C6800EB800000EB8000A400B0FBF4F4B9
:10165000FFF740FBA8FB07376B6800EB80009B009F
:1016600000EB8000B0FBF3F0A8FB003040094FF026
:10167000640A0AFB1044FFF72DFB696800EB800049
:101680008A0000EB8000B0FBF2F9FFF723FB240196
:101690006A68323400EB80009200A8FB043400EB4F
:1016A0008000B0FBF2F0A8FB00307F09640940091C
:1016B0003F0104F0F0040AFB109212013232A8FB41
:1016C0000223C3F343131C442744B760BDE8F087EB
:1016D0009E4259D003F580639E4255D0FFF7FAFA37
:1016E0006F68DFF8C08100EB800000EB80007F00B6
:1016F000B0FBF7F7FFF7EEFA6C6800EB800000EB49
:1017000080006400B0FBF4F4FFF7E4FA6A6800EBD1
:101710008000A8FB073700EB80005300B0FBF3F319
:10172000A8FB03235B094FF0640A0AFB1344E4009F
:10173000FFF7D0FA3234A8FB04346B687F09240920
:1017400000EB800000EB80005A003F0104F4F874C5
:10175000B0FBF2F9FFF7BEFA696800EB800000EB1E
:1017600080004900B0FBF1F1A8FB013149090AFBF7
:101770001192D2003232A8FB0223C3F342133B443E
:101780001C44B460BDE8F087FFF7BCFA6F68DFF86F
:10179000148100EB800000EB80007F00B0FBF7F7C6
:1017A000FFF7B0FA6C6800EB800000EB800064008B
:1017B000B0FBF4F4FFF7A6FA6A6800EB8000A8FB20
:1017C000073700EB80005300B0FBF3F3A8FB0323C3
:1017D0005B094FF0640A0AFB1344E400FFF792FA36
:1017E0003234A8FB04346B687F09240900EB8000C5
:1017F0005A003F0104F4F87400EB8000B0FBF2F9EA
:10180000FFF780FAA8E7FFF77DFA6F68DFF89480AA
:1018100000EB800000EB8000BF00B0FBF7F7FFF7A4
:1018200071FA6C6800EB800000EB8000A400B0FB54
:10183000F4F4FFF767FA6A6800EB8000A8FB07374B
:1018400000EB80009300B0FBF3F3A8FB03235B09DC
:101850004FF0640A0AFB13442401FFF753FA3234B1
:10186000A8FB04346B6800EB80009A0000EB80005A
:10187000B0FBF2F9FFF746FA696800EB800000EB75
:1018800080008900B0FBF1F1A8FB01317F096409F8
:1018900049093F0104F0F0040AFB11920DE700BF73
:1018A000001001401F85EB5160B338B590F8393016
:1018B000044603F0FF0203B32268242384F839307E
:1018C000D36823F40053D3602046FFF77FFE2368DC
:1018D0001A6922F490421A615A6922F02A025A6166
:1018E000DA680025202142F40052DA602846E563D8
:1018F00084F8391084F83A1038BD80F8382000F0A8
:1019000017FAD9E70120704770B594B00022294931
:101910000092086C284B40F080500864096C01F07C
:101920008051009100990192196841F44041196079
:101930001B680E9203F440430224019301251021F9
:101940000822B42307A8019E07940D9411941294C1
:1019500013940A950B910F921093FFF7EBF900B1D6
:10196000FEE7FFF7ADF8034600B1FEE74FF4805203
:101970000F264FF4A055052102A803940493029664
:1019800005950692FFF7EAF8044600B1FEE7FFF777
:101990009BF90A4BA3FB00308009FEF75BFF042094
:1019A000FEF772FF224621464FF0FF30FEF70EFF92
:1019B00014B070BD0038024000700040D34D62107A
:1019C00080B58EB00025FEF799FCFFF79DFF834B95
:1019D00001951A6B8248834C42F004021A631A6B19
:1019E00002F004020192019A02951A6B42F0800201
:1019F0001A631A6B02F080020292029A03951A6B24
:101A000042F001021A631A6B02F001020392039A78
:101A100004951A6B42F002021A631B6B03F0020377
:101A200004932A462021049BFFF734F82A464FF4FA
:101A300040716D48FFF72EF84FF400526B4B6A4827
:101A4000079207A9089301260995FEF72FFF202387
:101A500007A96348079309950A950896FEF726FF9C
:101A60004FF4407307A960480793089609950A95B3
:101A7000FEF71CFF2A4629462820FEF7A7FE28204D
:101A8000FEF7DCFE5A49A560B42264232046256196
:101A900084E80600E360FFF7BBFC00B1FEE7034605
:101AA00005A9204605930693FFF76CFD00B1FEE7FC
:101AB00002466025322309900B9007A9204607951E
:101AC0000893FFF7F5FC00B1FEE7042207A92046C2
:101AD000FFF7EEFC00B1FEE7082207A92046FFF75A
:101AE000E7FC00B1FEE70C2207A92046FFF7E0FC67
:101AF000074600B1FEE73F4D204600F0FFF83E49A3
:101B00003E4BAB624FF480322846AF602F61AF612D
:101B10002E626E62EF62EF60EE612F636E6185E8A8
:101B20000600FEF721FC034600B1FEE707A92846A0
:101B3000079308960993FEF78DFD024600B1FEE774
:101B40002F4B304E98604FF4165118460C255960B3
:101B5000DA601A619A61DA611E605D61FFF7A4FEC6
:101B6000014600B1FEE72046FFF7BCFB04212046FA
:101B7000FFF7B8FB08212046FFF7B4FB20462946B3
:101B8000FFF7B0FB2048214C00F088F91948FEF718
:101B90009DFC64211748FEF709FD1648FEF756FD27
:101BA00007EE900AF8EE677A6420C4ED007AFEF73B
:101BB000CDFB174800F072F920210948FEF76EFFAF
:101BC000D4ED007AB0EE087A67EE877AFCEEE77A19
:101BD00017EE900AFEF7BAFBD8E700BF00380240C4
:101BE000000002409C00002000080240000021107C
:101BF00000080040D8000020002001400100000F34
:101C00003401002000440040442D00080000002062
:101C10004C2D000808B50720FEF7C6FD002211462E
:101C20006FF00B00FEF7D2FD002211466FF00A00A4
:101C3000FEF7CCFD002211466FF00900FEF7C6FD4D
:101C4000002211466FF00400FEF7C0FD002211468D
:101C50006FF00300FEF7BAFD002211466FF001009D
:101C6000FEF7B4FD002211464FF0FF30FEF7AEFD47
:101C7000002205201146FEF7A9FD0520BDE8084019
:101C8000FEF7DCBD02680F4B9A4200D0704710B5DA
:101C900086B0002103F58C3300915A6C0A4842F457
:101CA00080725A645B6C039103F480730093012289
:101CB000032301A9009C01920293FEF7F7FD06B0F1
:101CC00010BD00BF002001400000024002680A4B26
:101CD0009A4200D0704782B003F50C330022019283
:101CE0001A6C42F004021A641B6C03F004030193A3
:101CF000019B02B0704700BF0008004002680A4B19
:101D00009A4200D0704710B586B0022200234FF4EB
:101D1000707401A9054801940292059203930493FB
:101D2000FEF7C4FD06B010BD0008004000040240EC
:101D30000268114B9A4200D07047F0B587B003F5A6
:101D4000FA33002200921A6C0C4842F400321A64F2
:101D50001B6C03F400330093032207230C26022597
:101D6000012401A9009F0196029503940492059312
:101D7000FEF79CFD07B0F0BD0044004000000240AB
:101D800008B5FEF7D5FABDE80840FEF78BBD00BFE9
:101D9000704700BF4FF40050FEF786BE1049114B4C
:101DA000D1F8882042F4700210B4C1F888201A6873
:101DB0000D4C002042F001021A6098601A6822F06F
:101DC000847222F480321A605C601A684FF00064FA
:101DD00022F480221A60D8608C605DF8044B704752
:101DE00000ED00E00038024010300024DFF834D06D
:101DF000002103E00C4B5B58435004310B480C4B63
:101E000042189A42F6D30B4A02E0002342F8043B00
:101E1000094B9A42F9D3FFF7C1FF00F011F8FFF721
:101E2000CFFD704700000220002E000800000020B7
:101E30006C0000206C0000207C010020FEE7000008
:101E400070B50E4B0E4CE41AA41000251E46A54298
:101E500004D056F8253098470135F8E700F05EFFCA
:101E6000084C094BE41AA41000251E46A54204D0D4
:101E700056F8253098470135F8E770BDF82D000871
:101E8000F82D0008FC2D0008F82D00080244034638
:101E9000934202D003F8011BFAE770470FB40A4BD4
:101EA00013B51C6824B1A36913B9204600F04EF89D
:101EB00005AB049AA1680193204600F059F902B0DD
:101EC000BDE8104004B0704768000020014900F0F0
:101ED000A9B800BF612A0008002310B504460360BA
:101EE0004360836081814366C28103614361836192
:101EF000194608225C30FFF7C9FF054B6362054BAA
:101F0000A362054BE362054B2462236310BD00BF4F
:101F100001270008232700085B2700087F27000807
:101F200070B568234D1E5D430E4605F1740100F047
:101F300097F8044640B1002180E842000C30A060D0
:101F400005F16802FFF7A2FF204670BD836910B556
:101F5000044633BB8364C3640365124B124A1B6897
:101F60008262984204BF0123836100F01FF8606021
:101F7000204600F01BF8A060204600F017F8002271
:101F8000E06004216068FFF7A7FF01220921A06833
:101F9000FFF7A2FF02221221E068FFF79DFF012355
:101FA000A36110BD602D0008CD1E0008F8B51C4BC4
:101FB0001E68B369074613B93046FFF7C7FF4836B6
:101FC000B4687368013B04D4B4F90C507DB1683433
:101FD000F8E733680BB13668F2E704213846FFF7BB
:101FE0009FFF30600028F6D10C233B60F8BD4FF610
:101FF000FF73E3810123A38165662560A5606560A9
:1020000025616561A5610822294604F15C00FFF79E
:102010003DFF6563A563A564E5642046F8BD00BF88
:10202000602D00082DE9F8438046894600F14804F8
:10203000002694B1A5686768013F0CD4AB89012BD9
:1020400007D9B5F90E30013303D029464046C847B9
:1020500006436835F0E72468EBE73046BDE8F883CF
:1020600070B5CD1C25F0030508350C2D38BF0C25A7
:10207000002D064601DBA94202D90C23336046E05D
:1020800000F08AFD234B1C681A462146A1B10B685B
:102090005B1B0ED40B2B03D90B60CC18CD501EE06C
:1020A0008C420DBF63684B686360136018BF0C46B9
:1020B00015E00C464968E9E7174C23681BB9304620
:1020C00000F00EFB20602946304600F009FB431C5F
:1020D00018D0C41C24F00304A0420DD12560304662
:1020E00000F05BFD04F10B00231D20F00700C31A74
:1020F0000ED05A42E25070BD211A304600F0F0FA7C
:102100000130EBD10C233360304600F046FD002057
:1021100070BD00BF8C000020880000209368013B48
:10212000002B10B4936009DA9469A34202DBCBB2AE
:102130000A2B03D15DF8044B00F026BB1368581C32
:1021400010601970C8B25DF8044B7047F8B50646C8
:102150000F461446D518AC4208D03A4614F8011B75
:102160003046FFF7DBFF431CF5D100E00020F8BD4F
:102170002DE9F04F9DB00C4617460393064618B163
:1021800083690BB9FFF7E2FE7F4B9C4201D1746873
:1021900008E07E4B9C4201D1B46803E07C4B9C423A
:1021A00008BFF468A38918070CD5236953B100232D
:1021B000099320238DF8293030238DF82A30DFF859
:1021C000D4B144E02146304600F044FB0028EED074
:1021D0004FF0FF30D5E0039A111D12680391002AD9
:1021E00080F28C80524243F002000792049098F8EB
:1021F00000302E2B00F08480032298F800106548F0
:10220000FEF716F848B14023CBEB000003FA00F0CC
:10221000049B1843049008F1010898F800105E48E8
:102220008DF82810062208F10107FEF701F80028B2
:1022300000F09580594B002B40F08880039B0733BA
:1022400023F0070308330393099B53440993B846CB
:10225000454615F8013B1BB9B8EB07090FD003E061
:10226000252BF9D0A846F3E74B463A46214630469F
:10227000FFF76CFF01307FD0099B4B44099398F81E
:102280000030002B78D000234FF0FF3204930793E7
:10229000059206938DF853301A9301270522297869
:1022A0003F48FDF7C5FF05F10108049B38B13C4AE2
:1022B000801A07FA00F0184304904546EEE7D90665
:1022C00044BF20228DF853201A0744BF2B228DF8DB
:1022D00053202A782A2A3FF47EAF079A00210A2049
:1022E000A846013598F80030303B092B03D800FB95
:1022F00002320121F4E700293FF479AF079276E733
:1023000098F801302A2B0BD1039B1A1D1B680392EE
:10231000002BB8BF4FF0FF3308F1020805936BE7BD
:102320000023059308F1010019460A258046013073
:1023300098F80020303A092A03D805FB012101232F
:10234000F4E7002B3FF458AF059155E703AB00933A
:102350002246144B04A93046AFF3008007E003ABDC
:10236000009322460F4B04A9304600F093F8B0F1D9
:10237000FF3F82467FF468AFA3895B063FF528AF35
:1023800009981DB0BDE8F08F642D0008842D000869
:10239000A42D0008CA2D0008CE2D00080000000062
:1023A000C42D00084D2100082DE9F04791461F4635
:1023B0000A698B68DDF820809342B8BF1346C9F8DC
:1023C000003091F8432006460C4612B10133C9F89B
:1023D00000302368990642BFD9F800300233C9F8AB
:1023E0000030256815F0060510D104F1190A07E040
:1023F0000123524639463046C04701301AD00135D4
:10240000E368D9F800209B1A9D42F1DB94F8433031
:102410002268003318BF012392060FD5E1185A1C19
:10242000302081F84300224494F8451082F843108C
:10243000023303E04FF0FF30BDE8F08704F14302C0
:1024400039463046C0470130F4D02268D9F80050F0
:10245000E36802F00602042A08BF5D1B2269A36834
:102460000CBF25EAE57500259342C4BF9B1AED1801
:102470004FF000091A344D4509D001232246394650
:102480003046C0470130D5D009F10109F3E70020FB
:10249000BDE8F0872DE9F04317460A7E85B06E2A25
:1024A000984606460C460C9B01F1430E00F0AE80A8
:1024B00011D8632A22D009D8002A00F0BB80582AFC
:1024C00040F0CA8081F84520834955E0642A1ED037
:1024D000692A1CD0C0E0732A00F0B08009D86F2AA6
:1024E0002ED0702A40F0B8800A6842F020020A60BC
:1024F0003EE0752A24D0782A3AD0ADE01A6801F17E
:102500004205111D1960136884F84230A8E0216863
:102510001A6811F0800F02D0111D196008E011F047
:10252000400F02F10401196002D0B2F9003000E05E
:102530001368002B3CDA2D225B4284F8432037E0FD
:1025400021681A6811F0800F02D0111D196007E090
:1025500011F0400F02F10401196001D0138800E06E
:102560001368227E5C496F2A14BF0A2208221BE0EE
:1025700078225A4984F845202268186812F0800FA2
:1025800000F104051D6003D1550601D5038800E064
:102590000368D00744BF42F0200222601BB92268C2
:1025A00022F0200222601022002084F8430001E083
:1025B00049490A226568A560002D08DB206820F0E3
:1025C000040020602BB9002D7DD175460CE0002B56
:1025D00079D07546B3FBF2F002FB1033CB5C05F803
:1025E000013D03460028F5D1082A0BD12368DA07FC
:1025F00008D5236962689A42DEBF302305F8013CA2
:1026000005F1FF35C5EB0E0323612EE008681A685B
:10261000496910F0800F03D0101D1860136808E09E
:1026200010F0400F02F104001860136801D0198007
:1026300000E0196000232361754616E01A68111D39
:1026400019601568626800212846FDF7F1FD08B1A0
:10265000401B6060636804E004F1420584F8422096
:1026600001232361002384F84330CDF800803B46EA
:1026700003AA21463046FFF797FE013002D14FF002
:10268000FF3026E023692A4639463046C0470130EC
:10269000F5D023689B0710D5002504F1190907E040
:1026A00001234A4639463046C0470130E7D001355C
:1026B000E368039A9B1A9D42F2DBE068039B984211
:1026C000B8BF184605E00B7884F8423004F14205A3
:1026D0008AE705B0BDE8F083D52D0008E62D000897
:1026E00038B5064C002305460846236000F000FB81
:1026F000431C02D1236803B12B6038BD7801002050
:1027000010B50C46B1F90E1000F096FA0028ABBFD8
:10271000636DA3891B1823F48053ACBF6365A38149
:1027200010BD2DE9F0411F468B89DB0505460C469F
:10273000164605D502230022B1F90E1000F0BAF9B1
:10274000A389B4F90E1023F48053A38132463B468B
:102750002846BDE8F04100F06BB810B50C46B1F961
:102760000E1000F0A7F9431CA38915BF606523F480
:10277000805343F48053A38118BFA38110BDB1F9E6
:102780000E1000F0D5B80000F8B50F461446054607
:1027900018B183690BB9FFF7D9FB224B9C4201D1D9
:1027A0006C6808E0204B9C4201D1AC6803E01F4BF1
:1027B0009C4208BFEC68A369A360A3891A0709D5E6
:1027C00023693BB123682069181A63699842FEB2F5
:1027D0000FDB08E02146284600F03CF80028F1D045
:1027E0004FF0FF361BE02146284600F039F900285B
:1027F000F6D1A368013BA36023685A1C22601F70B6
:1028000063690130984204D0A389DB0707D50A2EFB
:1028100005D12146284600F023F90028E0D13046B2
:10282000F8BD00BF642D0008842D0008A42D000809
:1028300038B5074C054608461146002222601A4664
:1028400000F064FA431C02D1236803B12B6038BD49
:1028500078010020324B70B51D6806460C4625B144
:10286000AB6913B92846FFF771FB2E4B9C4201D18F
:102870006C6808E02C4B9C4201D1AC6803E02B4B08
:102880009C4208BFEC68B4F90C309AB215071DD40D
:10289000D00602D4092232603AE0510712D5616BAA
:1028A00041B104F14403994202D0304600F076F978
:1028B00000236363A38923F02403A38100236360BF
:1028C00023692360A38943F00803A38123694BB9DB
:1028D000A38903F42073B3F5007F03D0214630466B
:1028E00000F01EF9A28912F0010305D00023A360B5
:1028F00063695B42A36103E0920758BF6369A36009
:1029000023695BB9B4F90C3003F0800080B230B1B8
:1029100043F04003A3814FF0FF3070BD002070BD35
:1029200068000020642D0008842D0008A42D0008F4
:1029300038B5064C002305460846236000F0B0F980
:10294000431C02D1236803B12B6038BD78010020FD
:102950008A892DE9F041054610070C4659D44B6889
:10296000002B02DC0B6C002B17DDE66AAEB102F423
:102970008052002392B22F682B600AB1606D15E07F
:10298000216A01232846B047411C0FD12B686BB147
:102990001D2B01D0162B03D12F600020BDE8F08144
:1029A000A38943F04003A381BDE8F081A3895A07BE
:1029B00005D56368C01A636B0BB1236CC01A002382
:1029C0000246E66A216A2846B047431CA38906D11D
:1029D00029681D293AD8214ACA40D60736D500228F
:1029E0006260D9042269226004D5421C01D12B689F
:1029F00003B96065616B2F600029CED004F14403F8
:102A0000994202D0284600F0C9F800206063BDE872
:102A1000F0810F69002FC0D093070E6808BF4B6983
:102A20000F6018BF0023C7EB06088B6002E0074465
:102A3000C0EB0808B8F1000FAFDD43463A46216A03
:102A4000A66A2846B0470028F1DCA38943F040037A
:102A5000A3814FF0FF30BDE8F08100BF01004020AE
:102A600038B50B6905460C46DBB118B183690BB963
:102A7000FFF76CFA0C4B9C4201D16C6808E00B4BE1
:102A80009C4201D1AC6803E0094B9C4208BFEC6852
:102A9000B4F90C302BB121462846BDE83840FFF789
:102AA00057BF002038BD00BF642D0008842D0008EA
:102AB000A42D000838B5074C0546084611460022EB
:102AC00022601A4600F004F9431C02D1236803B1C6
:102AD0002B6038BD7801002070B50E46B1F90E109C
:102AE000002990B014461D4606DA00232B60B389F6
:102AF0001A060ED540230EE001AA00F0AFF8002818
:102B0000F3DB029A02F47042A2F500535A425A4192
:102B10002A604FF480630020236010B070BD000075
:102B20008B8973B59E0705460C4610D401AB6A46E7
:102B3000FFF7D2FF009906462846FFF791FA68B9D9
:102B4000B4F90C309A0522D443F00203A38104F1B6
:102B50004703236023610123636118E00D4BAB62DF
:102B6000A389206043F08003A381009B6361019BE4
:102B700020614BB1B4F90E10284600F081F818B16D
:102B8000A38943F00103A381A0893043A08102B04F
:102B900070BD00BFCD1E00087047704738B50546B0
:102BA000002946D051F8043C0C1F002BB8BFE41894
:102BB000FFF7F2FF1F4A1368114613B963601460F0
:102BC00032E0A3420ED92268A018834204BF1868DD
:102BD0005B68636004BF121822600C6024E0A242AC
:102BE00003D813465A68002AF9D118681918A14267
:102BF0000BD12168014458188242196014D1106821
:102C000052685A60014419600EE002D90C232B600F
:102C10000AE021686018824204BF1068526862604E
:102C200004BF091821605C602846BDE83840FFF702
:102C3000B4BF38BD8C00002038B5074C05460846A7
:102C40001146002222601A4600F04AF8431C02D1C5
:102C5000236803B12B6038BD7801002038B5074CDC
:102C60000023054608461146236000F021F8431C66
:102C700002D1236803B12B6038BD00BF780100206A
:102C800038B5064C002305460846236000F018F8C6
:102C9000431C02D1236803B12B6038BD78010020AA
:102CA000024B58221A604FF0FF3070477801002025
:102CB000024B58221A604FF0FF3070477801002015
:102CC000024B58221A600020704700BF7801002094
:102CD000024B58221A604FF0FF30704778010020F5
:102CE000024B58221A604FF0FF30704778010020E5
:102CF000044A05491368002B08BF0B4618441060AE
:102D0000184670479000002080010020024B582296
:102D10001A604FF0FF30704778010020F8B500BF0F
:102D2000F8BC08BC9E467047F8B500BFF8BC08BCAC
:042D30009E46704704
:102D3400000000000102030401020304060708095D
:102D440048454C4C4F0000004144432076616C756B
:102D540065206973204E4F573A0000000800002098
:102D6400000000000000000000000000000000005F
:102D7400000000000000000000000000000000004F
:102D8400000000000000000000000000000000003F
:102D9400000000000000000000000000000000002F
:102DA400000000000000000000000000000000001F
:102DB400000000000000000000000000000000000F
:102DC400232D302B2000686C4C0065666745464710
:102DD4000030313233343536373839414243444593
:102DE4004600303132333435363738396162636402
:042DF4006566000010
:042DF800F5010008D9
:042DFC00D1010008F9
:102E00009A99993E0024F40000000000642D000807
:102E1000842D0008A42D0008000000000000000020
:102E200000000000000000000000000000000000A2
:102E30000000000000000000000000000000000092
:102E40000000000000000000000000000000000082
:102E50000000000000000000000000000000000072
:0C2E60000000000000000000080000203E
:0400000508001DEDE5
:00000001FF
